:020000040800F2
:10000000005000209D1A0008A5180008B518000827
:10001000C5180008D5180008DB180008000000000B
:10002000000000000000000000000000E1180008CF
:10003000ED18000800000000F91800080519000874
:10004000E51A0008E51A0008E51A0008E51A000894
:10005000E51A0008E51A0008E51A0008E51A000884
:10006000E51A0008E51A0008E51A0008E51A000874
:10007000E51A0008E51A0008E51A0008E51A000864
:10008000E51A0008E51A0008E51A0008E51A000854
:10009000E51A0008E51A0008E51A0008E51A000844
:1000A000E51A0008E51A0008E51A0008E51A000834
:1000B000E51A0008E51A0008E51A0008E51A000824
:1000C000E51A0008E51A0008E51A0008E51A000814
:1000D000E51A0008E51A0008E51A0008E51A000804
:1000E000E51A0008E51A0008E51A000800000000FB
:1000F0000000000000000000000000000000000000
:0C01000000000000000000005FF808F1A3
:1001100010B5054C237833B9044B13B10448AFF341
:1001200000800123237010BDDC01002000000000CE
:10013000C45D000808B5034B1BB103490348AFF386
:10014000008008BD00000000E0010020C45D000840
:10015000034613F8012B002AFBD1181A0138704707
:1001600081F0004102E000BF83F0004330B54FEA68
:1001700041044FEA430594EA050F08BF90EA020FD5
:100180001FBF54EA000C55EA020C7FEA645C7FEA68
:10019000655C00F0E2804FEA5454D4EB5555B8BF8B
:1001A0006D420CDD2C4480EA020281EA030382EAFC
:1001B000000083EA010180EA020281EA0303362D8E
:1001C00088BF30BD11F0004F4FEA01314FF4801C61
:1001D0004CEA113102D0404261EB410113F0004F73
:1001E0004FEA03334CEA133302D0524263EB43032A
:1001F00094EA050F00F0A780A4F10104D5F1200EC8
:100200000DDB02FA0EFC22FA05F2801841F1000122
:1002100003FA0EF2801843FA05F359410EE0A5F1F6
:1002200020050EF1200E012A03FA0EFC28BF4CF027
:10023000020C43FA05F3C01851EBE37101F00045DD
:1002400007D54FF0000EDCF1000C7EEB00006EEBEA
:100250000101B1F5801F1BD3B1F5001F0CD3490874
:100260005FEA30004FEA3C0C04F101044FEA4452CB
:1002700012F5800F80F09A80BCF1004F08BF5FEA52
:10028000500C50F1000041EB045141EA050130BD32
:100290005FEA4C0C404141EB0101013C28BFB1F544
:1002A000801FE9D291F0000F04BF01460020B1FA8F
:1002B00081F308BF2033A3F10B03B3F120020CDA62
:1002C0000C3208DD02F1140CC2F10C0201FA0CF040
:1002D00021FA02F10CE002F11402D8BFC2F1200CA5
:1002E00001FA02F120FA0CFCDCBF41EA0C0190405B
:1002F000E41AA2BF01EB0451294330BD6FEA0404A4
:100300001F3C1CDA0C340EDC04F11404C4F120028E
:1003100020FA04F001FA02F340EA030021FA04F3A0
:1003200045EA030130BDC4F10C04C4F1200220FAF7
:1003300002F001FA04F340EA0300294630BD21FA35
:1003400004F0294630BD94F0000F83F4801306BFFB
:1003500081F480110134013D4EE77FEA645C18BFEF
:100360007FEA655C29D094EA050F08BF90EA020F86
:1003700005D054EA000C04BF1946104630BD91EA7E
:10038000030F1EBF0021002030BD5FEA545C05D181
:100390004000494128BF41F0004130BD14F58004C0
:1003A0003CBF01F5801130BD01F0004545F0FE4134
:1003B00041F470014FF0000030BD7FEA645C1ABF69
:1003C000194610467FEA655C1CBF0B46024650EAA0
:1003D000013406BF52EA033591EA030F41F40021CC
:1003E00030BD00BF90F0000F04BF0021704730B552
:1003F0004FF4806404F132044FF000054FF0000127
:1004000050E700BF90F0000F04BF0021704730B5E7
:100410004FF4806404F1320410F0004548BF4042BC
:100420004FF000013EE700BF42004FEAE2014FEA11
:1004300031014FEA02701FBF12F07F4393F07F4FEC
:1004400081F06051704732F07F4208BF704793F0EF
:100450007F4F04BF41F40021704730B54FF4607402
:1004600001F0004521F000411CE700BF50EA010205
:1004700008BF704730B54FF000050AE050EA0102AE
:1004800008BF704730B511F0004502D5404261EB1E
:1004900041014FF4806404F132045FEA915C3FF45F
:1004A000D8AE4FF003025FEADC0C18BF03325FEAFC
:1004B000DC0C18BF033202EBDC02C2F1200300FAAD
:1004C00003FC20FA02F001FA03FE40EA0E0021FAD2
:1004D00002F11444BDE600BF70B54FF0FF0C4CF4C0
:1004E000E06C1CEA11541DBF1CEA135594EA0C0F72
:1004F00095EA0C0F00F0DEF82C4481EA030621EAAD
:100500004C5123EA4C5350EA013518BF52EA0335E7
:1005100041F4801143F4801338D0A0FB02CE4FF099
:100520000005E1FB02E506F00042E0FB03E54FF0C9
:100530000006E1FB03569CF0000F18BF4EF0010EC1
:10054000A4F1FF04B6F5007F64F5407404D25FEABD
:100550004E0E6D4146EB060642EAC62141EA555170
:100560004FEAC52040EA5E504FEACE2EB4F1FD0CB2
:1005700088BFBCF5E06F1ED8BEF1004F08BF5FEA30
:10058000500E50F1000041EB045170BD06F00046E2
:1005900046EA010140EA020081EA0301B4EB5C048F
:1005A000C2BFD4EB0C0541EA045170BD41F4801187
:1005B0004FF0000E013C00F3AB8014F1360FDEBFAC
:1005C000002001F0004170BDC4F10004203C35DA88
:1005D0000C341BDC04F11404C4F1200500FA05F30B
:1005E00020FA04F001FA05F240EA020001F00042AC
:1005F00021F0004110EBD37021FA04F642EB060122
:100600005EEA430E08BF20EAD37070BDC4F10C044B
:10061000C4F1200500FA04F320FA05F001FA04F20F
:1006200040EA020001F0004110EBD37041F10001FB
:100630005EEA430E08BF20EAD37070BDC4F1200506
:1006400000FA05F24EEA020E20FA04F301FA05F26E
:1006500043EA020321FA04F001F0004121FA04F216
:1006600020EA020000EBD3705EEA430E08BF20EAE6
:10067000D37070BD94F0000F0FD101F00046400020
:1006800041EB010111F4801F08BF013CF7D041EAA2
:10069000060195F0000F18BF704703F000465200A6
:1006A00043EB030313F4801F08BF013DF7D043EA77
:1006B0000603704794EA0C0F0CEA135518BF95EA2D
:1006C0000C0F0CD050EA410618BF52EA4306D1D1B4
:1006D00081EA030101F000414FF0000070BD50EAD3
:1006E000410606BF1046194652EA430619D094EA5D
:1006F0000C0F02D150EA013613D195EA0C0F05D147
:1007000052EA03361CBF104619460AD181EA03019A
:1007100001F0004141F0FE4141F470014FF0000052
:1007200070BD41F0FE4141F4780170BD70B54FF0ED
:10073000FF0C4CF4E06C1CEA11541DBF1CEA13556D
:1007400094EA0C0F95EA0C0F00F0A7F8A4EB05044F
:1007500081EA030E52EA03354FEA013100F0888046
:100760004FEA03334FF0805545EA131343EA12630F
:100770004FEA022245EA111545EA10654FEA0026C4
:100780000EF000419D4208BF964244F1FD0404F57D
:10079000407402D25B084FEA3202B61A65EB0305D9
:1007A0005B084FEA32024FF480104FF4002CB6EB96
:1007B000020E75EB030E22BFB61A754640EA0C0016
:1007C0005B084FEA3202B6EB020E75EB030E22BF56
:1007D000B61A754640EA5C005B084FEA3202B6EB97
:1007E000020E75EB030E22BFB61A754640EA9C0056
:1007F0005B084FEA3202B6EB020E75EB030E22BF26
:10080000B61A754640EADC0055EA060E18D04FEAE3
:10081000051545EA16754FEA06164FEAC30343EA83
:1008200052734FEAC2025FEA1C1CC0D111F4801F50
:100830000BD141EA00014FF000004FF0004CB6E749
:1008400011F4801F04BF01430020B4F1FD0C88BFE8
:10085000BCF5E06F3FF6AFAEB5EB030C04BFB6EBF3
:10086000020C5FEA500C50F1000041EB045170BDE6
:100870000EF0004E4EEA113114EB5C04C2BFD4EB13
:100880000C0541EA045170BD41F480114FF0000E97
:10089000013C90E645EA060E8DE60CEA135594EA13
:1008A0000C0F08BF95EA0C0F3FF43BAF94EA0C0F16
:1008B0000AD150EA01347FF434AF95EA0C0F7FF48B
:1008C00025AF104619462CE795EA0C0F06D152EADF
:1008D00003353FF4FDAE1046194622E750EA4106C3
:1008E00018BF52EA43067FF4C5AE50EA41047FF4D4
:1008F0000DAF52EA43057FF4EBAE12E74FF0FF3C39
:1009000006E000BF4FF0010C02E000BF4FF0010C09
:100910004DF804CD4FEA410C7FEA6C5C4FEA430C82
:1009200018BF7FEA6C5C1BD001B050EA410C0CBFD1
:1009300052EA430C91EA030F02BF90EA020F002033
:10094000704710F1000F91EA030F58BF994208BF9A
:1009500090422CBFD8176FEAE37040F00100704757
:100960004FEA410C7FEA6C5C02D150EA013C07D1AE
:100970004FEA430C7FEA6C5CD6D152EA033CD3D0F9
:100980005DF8040B704700BF8446104662468C46F3
:100990001946634600E000BF01B5FFF7B7FF002826
:1009A00048BF10F1000F01BD4DF808EDFFF7F4FF4F
:1009B0000CBF012000205DF808FB00BF4DF808EDDA
:1009C000FFF7EAFF34BF012000205DF808FB00BFFD
:1009D0004DF808EDFFF7E0FF94BF012000205DF81F
:1009E00008FB00BF4DF808EDFFF7CEFF94BF0120D4
:1009F00000205DF808FB00BF4DF808EDFFF7C4FFCD
:100A000034BF012000205DF808FB00BF4FEA410C15
:100A10007FEA6C5C02D150EA013C0AD14FEA430CF8
:100A20007FEA6C5C02D152EA033C02D14FF0000035
:100A300070474FF0010070474FEA410212F5001273
:100A400015D211D56FF47873B3EB625212D94FEA15
:100A5000C12343F0004343EA505311F0004F23FAFF
:100A600002F018BF404270474FF00000704750EA54
:100A7000013005D111F0004008BF6FF00040704711
:100A80004FF00000704700BF80F0004002E000BF60
:100A900081F0004142001FBF5FEA410392EA030F69
:100AA0007FEA226C7FEA236C6AD04FEA1262D2EBB3
:100AB0001363C1BFD218414048404140B8BF5B42B8
:100AC000192B88BF704710F0004F40F4000020F051
:100AD0007F4018BF404211F0004F41F4000121F067
:100AE0007F4118BF494292EA030F3FD0A2F10102B1
:100AF00041FA03FC10EB0C00C3F1200301FA03F1EF
:100B000000F0004302D5494260EB4000B0F5000F11
:100B100013D3B0F1807F06D340084FEA310102F1D0
:100B20000102FE2A51D2B1F1004F40EBC25008BF82
:100B300020F0010040EA03007047490040EB00004C
:100B4000013A28BFB0F5000FEDD2B0FA80FCACF14D
:100B5000080CB2EB0C0200FA0CF0AABF00EBC2507A
:100B600052421843BCBFD0401843704792F0000F68
:100B700081F4000106BF80F400000132013BB5E7BB
:100B80004FEA41037FEA226C18BF7FEA236C21D031
:100B900092EA030F04D092F0000F08BF0846704796
:100BA00090EA010F1CBF0020704712F07F4F04D164
:100BB000400028BF40F00040704712F100723CBF77
:100BC00000F50000704700F0004343F0FE4040F4A1
:100BD000000070477FEA226216BF08467FEA23635F
:100BE0000146420206BF5FEA412390EA010F40F44A
:100BF000800070474FF0000304E000BF10F0004396
:100C000048BF40425FEA000C08BF704743F096437C
:100C100001464FF000001CE050EA010208BF704797
:100C20004FF000030AE000BF50EA010208BF70471E
:100C300011F0004302D5404261EB41015FEA010C33
:100C400002BF84460146002043F0B64308BFA3F12B
:100C50008053A3F50003BCFA8CF2083AA3EBC2530D
:100C600010DB01FA02FC634400FA02FCC2F120022C
:100C7000BCF1004F20FA02F243EB020008BF20F063
:100C80000100704702F1200201FA02FCC2F12002C9
:100C900050EA4C0021FA02F243EB020008BF20EABE
:100CA000DC7070474FF0FF0C1CEAD0521EBF1CEAEC
:100CB000D15392EA0C0F93EA0C0F6FD01A4480EADA
:100CC000010C400218BF5FEA41211ED04FF00063C3
:100CD00043EA501043EA5111A0FB01310CF00040EF
:100CE000B1F5000F3EBF490041EAD3715B0040EA15
:100CF000010062F17F02FD2A1DD8B3F1004F40EBE5
:100D0000C25008BF20F00100704790F0000F0CF0B7
:100D1000004C08BF49024CEA502040EA51207F3A7B
:100D2000C2BFD2F1FF0340EAC250704740F4000056
:100D30004FF00003013A5DDC12F1190FDCBF00F047
:100D400000407047C2F10002410021FA02F1C2F1F5
:100D5000200200FA02FC5FEA310040F1000053EA91
:100D60004C0308BF20EADC70704792F0000F00F0DF
:100D7000004C02BF400010F4000F013AF9D040EAE5
:100D80000C0093F0000F01F0004C02BF490011F479
:100D9000000F013BF9D041EA0C018FE70CEAD15377
:100DA00092EA0C0F18BF93EA0C0F0AD030F0004CF7
:100DB00018BF31F0004CD8D180EA010000F00040AB
:100DC000704790F0000F17BF90F0004F084691F069
:100DD000000F91F0004F14D092EA0C0F01D14202A3
:100DE0000FD193EA0C0F03D14B0218BF084608D16C
:100DF00080EA010000F0004040F0FE4040F40000B6
:100E0000704740F0FE4040F4400070474FF0FF0C48
:100E10001CEAD0521EBF1CEAD15392EA0C0F93EA8F
:100E20000C0F69D0A2EB030280EA010C49024FEAE1
:100E3000402037D04FF0805343EA111143EA10139A
:100E40000CF000408B4238BF5B0042F17D024FF452
:100E5000000C8B4224BF5B1A40EA0C00B3EB510F2D
:100E600024BFA3EB510340EA5C00B3EB910F24BF16
:100E7000A3EB910340EA9C00B3EBD10F24BFA3EB9B
:100E8000D10340EADC001B0118BF5FEA1C1CE0D163
:100E9000FD2A3FF650AF8B4240EBC25008BF20F016
:100EA000010070470CF0004C4CEA50207F32C2BF6A
:100EB000D2F1FF0340EAC250704740F400004FF007
:100EC0000003013A37E792F0000F00F0004C02BF38
:100ED000400010F4000F013AF9D040EA0C0093F002
:100EE000000F01F0004C02BF490011F4000F013B5C
:100EF000F9D041EA0C0195E70CEAD15392EA0C0FC4
:100F000008D142027FF47DAF93EA0C0F7FF470AFFB
:100F1000084676E793EA0C0F04D14B023FF44CAF3E
:100F200008466EE730F0004C18BF31F0004CCAD1D3
:100F300030F000427FF45CAF31F000437FF43CAF0F
:100F40005FE700BF80B483B000AF7860084B1B68D8
:100F500000225A6200BF064B1B685B6A7A689A429D
:100F6000F9D800BF00BF0C37BD4680BC704700BF3A
:100F7000F801002080B586B000AF00F0B5FD00F0AC
:100F8000A7F800F065F900F039F900F0E7F84148FA
:100F900001F032FD404802F063FE404B00221A701F
:100FA00003E03F4B1B78012B05D000F097FA034676
:100FB000002BF6D000E000BF3A4B1B7819463A48A8
:100FC00002F0C8FD394802F0C5FD00237B610AE04C
:100FD000374A7B6913441B781946364802F0BAFD3C
:100FE0007B6901337B617B69072BF1DD324802F0BD
:100FF00037FE00F0A3F90346304A13602F4B1B68FD
:10100000012B02D02E4802F02BFE002000F048FBFE
:101010000021BE2000F0C4F900237B6007F1080323
:1010200000221A601A7100233B610CE0002000F0DE
:101030000BFA034619463A1D3B6913440A461A70D7
:101040003B6901333B613B69082BEFDD7B791B0278
:101050001AB23B791BB213431BB29AB2194B1A80D6
:10106000184B1B881846FFF7C5FD03464FF0834118
:101070001846FFF7CBFE03461A46134B1A60124B75
:101080001B681846FFF7D0F902460B460F4802F0DE
:1010900061FDAEE7F8010020E05D00089D02002040
:1010A0009E0200209F020020005E0008205E0008D3
:1010B00090020020305E0008385E000884020020A4
:1010C0003C5E00088C02002088020020545E00086C
:1010D00080B590B000AF07F1180328220021184610
:1010E00002F0D0F83B1D00221A605A609A60DA6064
:1010F0001A610123BB614FF48033FB6100233B6223
:101100000123BB6202237B634FF48033BB634FF444
:10111000E013FB6307F11803184601F003F80346D8
:10112000002B01D000F018FB0F237B600223BB6073
:101130000023FB604FF480633B6100237B613B1D18
:101140000221184601F070FA0346002B01D000F08E
:1011500003FB00BF4037BD4680BD000080B586B0B0
:1011600000AF07F1080300221A605A609A60DA6043
:101170003B4600221A605A601E4B1F4A1A601D4BE4
:1011800047225A601B4B00229A601A4B4FF47A7226
:10119000DA60184B00221A61164B00225A61154B77
:1011A00000229A61134801F0D7FB0346002B01D0BF
:1011B00000F0D2FA4FF48053BB6007F108031946E0
:1011C0000C4801F063FC0346002B01D000F0C4FA88
:1011D00000233B6000237B603B461946054801F035
:1011E00011FE0346002B01D000F0B6FA00BF1837FD
:1011F000BD4680BDF8010020002C014080B500AF45
:10120000114B124A1A60104B4FF4E1325A600E4BE8
:1012100000229A600C4B0022DA600B4B00221A610C
:10122000094B0C225A61084B00229A61064B00229E
:10123000DA61054801F044FE0346002B01D000F0BE
:101240008BFA00BF80BD00BF400200200038014083
:1012500080B588B000AF07F1100300221A605A6011
:101260009A60DA60294B9B69284A43F01003936126
:10127000264B9B6903F01003FB60FB68234B9B69C3
:10128000224A43F020039361204B9B6903F0200323
:10129000BB60BB681D4B9B691C4A43F0080393610C
:1012A0001A4B9B6903F008037B607B68174B9B69B3
:1012B000164A43F004039361144B9B6903F0040343
:1012C0003B603B6800224FF40051114800F011FFD1
:1012D0004FF400533B6101237B610023BB61022378
:1012E000FB6107F110031946094800F067FD02236E
:1012F0003B6103237B6107F110031946054800F0A9
:101300005DFD00BF2037BD4680BD00BF001002401C
:1013100000100140000C014080B582B000AF786041
:10132000391D4FF0FF330122034801F016FE7B68A0
:1013300018460837BD4680BD4002002080B582B007
:1013400000AF00237B600221144800F0CBF900229B
:101350000221124800F0CDFE4FF4F070FFF7F2FDCD
:1013600002210E4800F0DBF95020FFF7EBFD0221CF
:101370000A4800F0A7FE0346002B02D101237B6040
:1013800002E04FF0FF337B604FF4C870FFF7DAFDE7
:101390007B6818460837BD4680BD00BF000C014081
:1013A00080B584B000AF03460A46FB711346BB719B
:1013B0000023FB60BB79012B02D10123FB6001E01C
:1013C0000823FB6002211F4800F08CF90023BB605A
:1013D0002EE0FA79BB6842FA03F303F00103002B15
:1013E00013D00221174800F07DF900220221154890
:1013F00000F07FFE0120FFF7A5FD0221114800F05B
:101400008EF93C20FFF79EFD0FE002210D4800F011
:1014100069F9002202210B4800F06BFE3C20FFF727
:1014200091FD0221074800F07AF9BB680133BB60E7
:10143000BA68FB689A42CCDB00BF00BF1037BD46DC
:1014400080BD00BF000C014080B586B000AF0346F0
:10145000FB7100237B61FB79012B02D101237B61AE
:1014600001E008237B610023FB7402211A4800F08D
:1014700056F90023FB6026E00221174800F032F9FC
:1014800000220221144800F034FE0520FFF75AFD27
:101490000221114800F043F902210F4800F012FE2A
:1014A0000346002B09D00122FB6802FA03F35AB26B
:1014B00097F9133013435BB2FB743C20FFF742FDF6
:1014C000FB680133FB60FA687B699A42D4DBFB7CE2
:1014D00018461837BD4680BD000C014080B500AFEE
:1014E000FFF72CFF03465E4A13605D4B1B68012B20
:1014F00004D05C4802F0B4FB0023AEE05A4B1B78EA
:10150000012B01D10023A8E0012000F04FFB574B35
:1015100001221A70564B00221A600021F020FFF7BA
:101520003FFF544B00221A700120FFF78DFF034646
:101530001A46514B1A700120FFF786FF03461A46E0
:101540004E4B1A704C4B1B78002B08D04B4B1B7822
:10155000002B04D04A4802F083FB00237DE0464B79
:101560001A78464B1B789A421CD1404B1A78454B4F
:101570001B789A4203D1444B01221A7016E03B4B70
:101580001A78404B1B789A4203D93F4B00221A70BD
:101590000CE0364B1B78002B08D1344B1A783B4BB0
:1015A0001A7003E0344B1A78374B1A70364B1B789D
:1015B00001211846FFF7F4FE354B1B781A46354BD0
:1015C0009B5C5AB2304B1B7819462A4B1B7801FAA8
:1015D00003F35BB2134359B22D4B1B781A46C9B2C1
:1015E0002C4B9954214B1B7803F00703DBB2002BE3
:1015F00005D1274B1B780133DAB2254B1A701D4BEE
:101600001B780133DAB21B4B1A701A4B1B78072B6D
:1016100002D9184B00221A70144B1B780133DAB22E
:10162000124B1A70114B1B78402B7FF67DAF174B76
:101630001A78144B1A70134B1B78002B03D10A4BEA
:1016400001221A7002E0144802F00AFB134B1B78C7
:101650000133DAB2114B1A700123184680BD00BF66
:10166000840200203C5E00089E0200209B020020B5
:10167000A4020020A102002098020020990200206C
:10168000685E00089D0200209A0200209C02002053
:10169000A002002090020020785E00089F02002037
:1016A00080B584B000AF786000215520FFF778FE48
:1016B0000023FB600CE07B68DA00FB681344084AF7
:1016C000D35C00211846FFF76BFEFB680133FB601B
:1016D000FB68072BEFDD00BF00BF1037BD4680BDA4
:1016E0009002002080B586B000AF78600B467B800A
:1016F00007F1080300221A605A609A60DA607B885A
:10170000BB600123FB6003237B6107F108031946DB
:10171000786800F053FB00BF1837BD4680BD80B528
:1017200086B000AF78600B467B8007F1080300228B
:101730001A605A609A60DA607B88BB600023FB60A5
:1017400001233B6107F108031946786800F036FB76
:1017500000BF1837BD4680BD80B500AF024802F01B
:101760007FFA72B600BFFEE7845E000880B485B0E1
:1017700000AF154B9B69144A43F001039361124B70
:101780009B6903F00103BB60BB680F4BDB690E4A2A
:1017900043F08053D3610C4BDB6903F080537B60D3
:1017A0007B680A4B5B68FB60FB6823F0E063FB60CF
:1017B000FB6843F00073FB60044AFB68536000BFA2
:1017C0001437BD4680BC7047001002400000014045
:1017D00080B485B000AF78607B681B68094A93428B
:1017E0000BD1094B9B69084A43F400639361064B94
:1017F0009B6903F40063FB60FB6800BF1437BD46C0
:1018000080BC7047002C01400010024080B588B0B9
:1018100000AF786007F1100300221A605A609A60E6
:10182000DA607B681B681C4A934231D11B4B9B6971
:101830001A4A43F480439361184B9B6903F4804335
:10184000FB60FB68154B9B69144A43F004039361EA
:10185000124B9B6903F00403BB60BB684FF4007339
:101860003B6102237B610323FB6107F110031946EF
:101870000B4800F0A3FA4FF480633B6100237B61C7
:101880000023BB6107F110031946054800F096FAE2
:1018900000BF2037BD4680BD003801400010024027
:1018A0000008014080B500AF014802F0D9F9FEE719
:1018B0009C5E000880B500AF014802F0D1F9FEE758
:1018C000B05E000880B500AF014802F0C9F9FEE73C
:1018D000C45E000880B400AFFEE780B400AFFEE74E
:1018E00080B400AF00BFBD4680BC704780B400AF7D
:1018F00000BFBD4680BC704780B400AF00BFBD468E
:1019000080BC704780B500AF00F034F900BF80BDE7
:1019100080B400AF01231846BD4680BC704780B537
:1019200082B000AF7860396001F082FC0346162275
:101930001A604FF0FF3318460837BD4680BD80B5AA
:1019400082B000AF78604FF0FF317868FFF7E7FFB3
:10195000FEE780B586B000AFF860B9607A6000231A
:101960007B610AE0AFF300800146BB685A1CBA6095
:10197000CAB21A707B6901337B617A697B689A42CB
:10198000F0DB7B6818461837BD4680BD80B586B051
:1019900000AFF860B9607A6000237B6109E0BB6842
:1019A0005A1CBA601B781846FFF7B6FC7B690133F6
:1019B0007B617A697B689A42F1DB7B68184618374D
:1019C000BD4680BD80B483B000AF78604FF0FF3378
:1019D00018460C37BD4680BC704780B483B000AF5A
:1019E000786039603B684FF400525A600023184613
:1019F0000C37BD4680BC704780B483B000AF7860C0
:101A0000012318460C37BD4680BC704780B485B0B2
:101A100000AFF860B9607A60002318461437BD46FD
:101A200080BC704780B586B000AF7860144A154B13
:101A3000D31A7B617B693B61134B1B68002B02D17E
:101A4000114B124A1A60104B1A687B6813443A69AA
:101A50009A4207D201F0ECFB03460C221A604FF0C9
:101A6000FF3309E0084B1B68FB60074B1A687B6873
:101A70001344054A1360FB6818461837BD4680BDFD
:101A80000050002000040000A8020020C002002036
:101A900080B400AF00BFBD4680BC70470C480D4904
:101AA0000D4A002302E0D458C4500433C4188C42B9
:101AB000F9D30A4A0A4C002301E013600432A2421F
:101AC000FBD3FFF7E5FF01F0B9FBFFF753FA7047CF
:101AD00000000020DC010020E4620008DC0100209E
:101AE000C0020020FEE7000080B500AF084B1B6875
:101AF000074A43F010031360032000F02BF9002085
:101B000000F008F8FFF732FE0023184680BD00BF42
:101B10000020024080B582B000AF7860124B1A6896
:101B2000124B1B7819464FF47A73B3FBF1F3B2FBF7
:101B3000F3F3184600F035F90346002B01D00123DA
:101B40000EE07B680F2B0AD8002279684FF0FF3037
:101B500000F00BF9064A7B681360002300E00123C4
:101B600018460837BD4680BD000000200800002050
:101B70000400002080B400AF054B1B781A46054BCB
:101B80001B681344034A136000BFBD4680BC704706
:101B900008000020AC02002080B400AF024B1B689C
:101BA0001846BD4680BC7047AC02002080B584B0AA
:101BB00000AF7860FFF7F0FFB8607B68FB60FB6800
:101BC000B3F1FF3F05D00A4B1B781A46FB6813445C
:101BD000FB6000BFFFF7E0FF0246BB68D31AFA685C
:101BE0009A42F7D800BF00BF1037BD4680BD00BF86
:101BF0000800002080B485B000AF78607B6803F0F7
:101C00000703FB600C4BDB68BB60BA684FF6FF0351
:101C10001340BB60FB681A02BB68134343F0BF6309
:101C200043F40033BB60044ABB68D36000BF143781
:101C3000BD4680BC704700BF00ED00E080B400AF3F
:101C4000044BDB681B0A03F007031846BD4680BC43
:101C5000704700BF00ED00E080B483B000AF0346E2
:101C60003960FB7197F90730002B0ADB3B68DAB269
:101C70000C4997F907301201D2B20B4483F80023C4
:101C80000AE03B68DAB20849FB7903F00F03043B32
:101C90001201D2B20B441A7600BF0C37BD4680BC8D
:101CA000704700BF00E100E000ED00E080B489B0C3
:101CB00000AFF860B9607A60FB6803F00703FB616E
:101CC000FB69C3F10703042B28BF0423BB61FB6935
:101CD0000433062B02D9FB69033B00E000237B6140
:101CE0004FF0FF32BB6902FA03F3DA43BB681A40D4
:101CF0007B699A404FF0FF317B6901FA03F3D943C6
:101D00007B680B40134318462437BD4680BC7047A0
:101D100080B582B000AF78607B68013BB3F1807F13
:101D200001D301230FE00A4A7B68013B53600F2176
:101D30004FF0FF30FFF790FF054B00229A60044BF5
:101D400007221A60002318460837BD4680BD00BF31
:101D500010E000E080B582B000AF78607868FFF7EF
:101D600049FF00BF0837BD4680BD80B586B000AFD3
:101D70000346B9607A60FB7300237B61FFF75EFF67
:101D800078617A68B9687869FFF790FF024697F939
:101D90000F3011461846FFF75FFF00BF1837BD46EA
:101DA00080BD80B582B000AF78607868FFF7B0FF83
:101DB000034618460837BD4680BD000080B48BB08E
:101DC00000AF7860396000237B6200233B6269E1E9
:101DD00001227B6A02FA03F3FB613B681B68FA6924
:101DE0001340BB61BA69FB699A4240F058813B6875
:101DF0005B689A4A93425ED0984A934275D8984A53
:101E0000934258D0964A93426FD8964A934252D002
:101E1000944A934269D8944A93424CD0924A93424E
:101E200063D8924A934246D0904A93425DD8122B8F
:101E30002AD8122B59D801A252F823F0B71E000855
:101E4000911E0008A31E0008E51E0008EB1E0008F6
:101E5000EB1E0008EB1E0008EB1E0008EB1E00083E
:101E6000EB1E0008EB1E0008EB1E0008EB1E00082E
:101E7000EB1E0008EB1E0008EB1E0008EB1E00081E
:101E8000991E0008AD1E0008794A934213D02CE039
:101E90003B68DB683B6229E03B68DB6804333B62FC
:101EA00024E03B68DB6808333B621FE03B68DB688B
:101EB0000C333B621AE03B689B68002B02D1042381
:101EC0003B6213E03B689B68012B05D108233B6212
:101ED0007B68FA691A6109E008233B627B68FA694A
:101EE0005A6103E000233B6200E000BFBB69FF2BA7
:101EF00001D87B6801E07B6804337B61BB69FF2B01
:101F000002D87B6A9B0002E07B6A083B9B003B6136
:101F10007B691A680F213B6901FA03F3DB431A401E
:101F2000396A3B6901FA03F31A437B691A603B681B
:101F30005B6803F08053002B00F0B1804D4B9B6930
:101F40004C4A43F0010393614A4B9B6903F0010340
:101F5000BB60BB68484A7B6A9B08023352F8233057
:101F6000FB607B6A03F003039B000F2202FA03F37A
:101F7000DB43FA681340FB607B68404A934213D00E
:101F80007B683F4A93420DD07B683E4A934207D01C
:101F90007B683D4A934201D1032306E0042304E019
:101FA000022302E0012300E000237A6A02F0030228
:101FB00092009340FA681343FB602F497B6A9B08A9
:101FC0000233FA6841F823203B685B6803F48033EE
:101FD000002B06D02D4B1A682C49BB6913430B60AC
:101FE00006E02A4B1A68BB69DB43284913400B60A3
:101FF0003B685B6803F40033002B06D0234B5A6820
:102000002249BB6913434B6006E0204B5A68BB6909
:10201000DB431E4913404B603B685B6803F480134D
:10202000002B06D0194B9A681849BB6913438B6083
:1020300006E0164B9A68BB69DB43144913408B607A
:102040003B685B6803F40013002B21D00F4BDA6868
:102050000E49BB691343CB6021E000BF0000321082
:1020600000003110000022100000211000001210AA
:102070000000111000100240000001400008014063
:10208000000C014000100140001401400004014018
:102090000B4BDA68BB69DB4309491340CB607B6AB1
:1020A00001337B623B681A687B6A22FA03F3002BD8
:1020B0007FF48EAE00BF00BF2C37BD4680BC70479A
:1020C0000004014080B485B000AF78600B467B808F
:1020D0007B689A687B881340002B02D00123FB7336
:1020E00001E00023FB73FB7B18461437BD4680BC20
:1020F000704780B483B000AF78600B467B80134696
:102100007B707B78002B03D07A887B681A6103E0B0
:102110007B881A047B681A6100BF0C37BD4680BCFF
:102120007047000080B586B000AF78607B68002BF8
:1021300001D1012372E27B681B6803F00103002BCD
:1021400000F08780924B5B6803F00C03042B0CD0EB
:102150008F4B5B6803F00C03082B12D18C4B5B6830
:1021600003F48033B3F5803F0BD1894B1B6803F434
:102170000033002B6CD07B685B68002B68D1012397
:102180004CE27B685B68B3F5803F06D1804B1B68EF
:102190007F4A43F4803313602EE07B685B68002B3A
:1021A0000CD17B4B1B687A4A23F480331360784B45
:1021B0001B68774A23F4802313601DE07B685B680B
:1021C000B3F5A02F0CD1724B1B68714A43F48023E6
:1021D00013606F4B1B686E4A43F4803313600BE04F
:1021E0006B4B1B686A4A23F480331360684B1B688F
:1021F000674A23F4802313607B685B68002B13D04D
:10220000FFF7CAFC386108E0FFF7C6FC02463B69ED
:10221000D31A642B01D9032300E25D4B1B6803F43E
:102220000033002BF0D014E0FFF7B6FC386108E073
:10223000FFF7B2FC02463B69D31A642B01D9032392
:10224000ECE1534B1B6803F40033002BF0D100E0AA
:1022500000BF7B681B6803F00203002B63D04C4B6C
:102260005B6803F00C03002B0BD0494B5B6803F059
:102270000C03082B1CD1464B5B6803F48033002B06
:1022800016D1434B1B6803F00203002B05D07B687B
:102290001B69012B01D00123C0E13D4B1B6823F0DA
:1022A000F8027B685B69DB00394913430B603AE055
:1022B0007B681B69002B20D0364B01221A60FFF788
:1022C0006BFC386108E0FFF767FC02463B69D31AF4
:1022D000022B01D90323A1E12D4B1B6803F002035C
:1022E000002BF0D02A4B1B6823F0F8027B685B6957
:1022F000DB00274913430B6015E0264B00221A60D0
:10230000FFF74AFC386108E0FFF746FC02463B69EC
:10231000D31A022B01D9032380E11D4B1B6803F064
:102320000203002BF0D17B681B6803F00803002B2D
:102330003AD07B689B69002B19D0174B01221A6099
:10234000FFF72AFC386108E0FFF726FC02463B69EC
:10235000D31A022B01D9032360E10D4B5B6A03F012
:102360000203002BF0D0012000F0D8FA1CE00A4B49
:1023700000221A60FFF710FC38610FE0FFF70CFC39
:1023800002463B69D31A022B08D9032346E100BF5A
:10239000001002400000424280044242924B5B6ABD
:1023A00003F00203002BE9D17B681B6803F00403F0
:1023B000002B00F0A6800023FB758B4BDB6903F03C
:1023C0008053002B0DD1884BDB69874A43F0805343
:1023D000D361854BDB6903F08053BB60BB6801238D
:1023E000FB75824B1B6803F48073002B18D17F4B65
:1023F0001B687E4A43F480731360FFF7CDFB38619E
:1024000008E0FFF7C9FB02463B69D31A642B01D9E8
:10241000032303E1754B1B6803F48073002BF0D09A
:102420007B68DB68012B06D16F4B1B6A6E4A43F059
:10243000010313622DE07B68DB68002B0CD16A4B33
:102440001B6A694A23F001031362674B1B6A664AE1
:1024500023F0040313621CE07B68DB68052B0CD1BE
:10246000614B1B6A604A43F0040313625E4B1B6AB4
:102470005D4A43F0010313620BE05B4B1B6A5A4A4F
:1024800023F001031362584B1B6A574A23F00403DD
:1024900013627B68DB68002B15D0FFF77DFB38618A
:1024A0000AE0FFF779FB02463B69D31A41F2883212
:1024B000934201D90323B1E04B4B1B6A03F00203A3
:1024C000002BEED014E0FFF767FB38610AE0FFF75E
:1024D00063FB02463B69D31A41F28832934201D929
:1024E00003239BE0404B1B6A03F00203002BEED159
:1024F000FB7D012B05D13C4BDB693B4A23F080532C
:10250000D3617B68DB69002B00F08780364B5B680A
:1025100003F00C03082B61D07B68DB69022B46D1EA
:10252000334B00221A60FFF737FB386108E0FFF7F2
:1025300033FB02463B69D31A022B01D903236DE01A
:10254000294B1B6803F00073002BF0D17B681B6ADA
:10255000B3F5803F08D1244B5B6823F400327B68DD
:102560009B68214913434B601F4B5B6823F4741233
:102570007B68196A7B685B6A0B431B4913434B609A
:102580001B4B01221A60FFF707FB386108E0FFF7D9
:1025900003FB02463B69D31A022B01D903233DE01A
:1025A000114B1B6803F00073002BF0D035E0104B8B
:1025B00000221A60FFF7F0FA386108E0FFF7ECFA42
:1025C00002463B69D31A022B01D9032326E0064BAE
:1025D0001B6803F00073002BF0D11EE07B68DB6901
:1025E000012B07D1012319E00010024000700040C8
:1025F000600042420B4B5B68FB60FB6803F4803277
:102600007B681B6A9A4206D1FB6803F470127B68F0
:102610005B6A9A4201D0012300E000231846183774
:10262000BD4680BD0010024080B584B000AF786028
:1026300039607B68002B01D10123D0E06A4B1B6815
:1026400003F007033A689A4210D9674B1B6823F0DE
:10265000070265493B6813430B60634B1B6803F03B
:1026600007033A689A4201D00123B8E07B681B68EF
:1026700003F00203002B20D07B681B6803F00403E7
:10268000002B05D0594B5B68584A43F4E063536014
:102690007B681B6803F00803002B05D0534B5B6875
:1026A000524A43F460535360504B5B6823F0F0028E
:1026B0007B689B684D4913434B607B681B6803F044
:1026C0000103002B40D07B685B68012B07D1474B8F
:1026D0001B6803F40033002B15D101237FE07B68D6
:1026E0005B68022B07D1414B1B6803F00073002B82
:1026F00009D1012373E03D4B1B6803F00203002B5B
:1027000001D101236BE0394B5B6823F003027B6846
:102710005B68364913434B60FFF73EFAF8600AE006
:10272000FFF73AFA0246FB68D31A41F28832934225
:1027300001D9032353E02D4B5B6803F00C027B6847
:102740005B689B009A42EBD1274B1B6803F00703A1
:102750003A689A4210D2244B1B6823F007022249A0
:102760003B6813430B60204B1B6803F007033A6878
:102770009A4201D0012332E07B681B6803F0040316
:10278000002B08D0194B5B6823F4E0627B68DB68A0
:10279000164913434B607B681B6803F00803002B4A
:1027A00009D0124B5B6823F460527B681B69DB0025
:1027B0000E4913434B6000F021F802460B4B5B6857
:1027C0001B0903F00F030A49CB5C22FA03F3094A01
:1027D0001360094B1B681846FFF79CF90023184645
:1027E0001037BD4680BD00BF0020024000100240EF
:1027F000E85E0008000000200400002090B48AB0C9
:1028000000AF294B3C1D0FCB84E80F0040F20123A1
:102810003B800023FB610023BB6100237B6200231C
:102820007B6100233B62214B5B68FB61FB6903F02A
:102830000C03042B02D0082B03D02BE01C4B3B6273
:102840002BE0FB699B0C03F00F0328333B4413F888
:10285000243C7B61FB6903F48033002B12D0134BC3
:102860005B685B0C03F0010328333B4413F8283CFE
:10287000BB617B690E4A03FB02F2BB69B2FBF3F357
:102880007B6204E07B690B4A02FB03F37B627B6A99
:102890003B6202E0064B3B6200BF3B6A18462837AA
:1028A000BD4690BC704700BFD85E000800100240D3
:1028B00000127A0000093D0080B400AF024B1B6893
:1028C0001846BD4680BC70470000002080B500AFB0
:1028D000FFF7F2FF0246054B5B681B0A03F0070394
:1028E0000349CB5C22FA03F3184680BD0010024076
:1028F000F85E000880B500AFFFF7DEFF0246054B2B
:102900005B68DB0A03F007030349CB5C22FA03F39D
:10291000184680BD00100240F85E000880B485B003
:1029200000AF78600A4B1B680A4AA2FB03235B0ACC
:102930007A6802FB03F3FB6000BFFB685A1EFA6073
:10294000002BF9D100BF00BF1437BD4680BC7047D3
:1029500000000020D34D621080B582B000AF7860D7
:102960007B68002B01D1012341E07B6893F83D3067
:10297000DBB2002B06D17B68002283F83C2078680C
:10298000FEF726FF7B68022283F83D207B681A68E9
:102990007B6804331946104600F03CF97B6801223D
:1029A00083F846207B68012283F83E207B68012261
:1029B00083F83F207B68012283F840207B68012256
:1029C00083F841207B68012283F842207B68012242
:1029D00083F843207B68012283F844207B6801222E
:1029E00083F845207B68012283F83D2000231846A8
:1029F0000837BD4680BD000080B485B000AF786068
:102A00007B6893F83D30DBB2012B01D0012332E02B
:102A10007B68022283F83D207B681B68184A93423A
:102A20000ED07B681B68B3F1804F09D07B681B68B0
:102A3000144A934204D07B681B68134A934211D115
:102A40007B681B689B6803F00703FB60FB68062B31
:102A500010D07B681B681A687B681B6842F0010213
:102A60001A6007E07B681B681A687B681B6842F085
:102A700001021A60002318461437BD4680BC704717
:102A8000002C0140000400400008004080B584B0E4
:102A900000AF786039607B6893F83C30012B01D13E
:102AA0000223B3E07B68012283F83C207B6802228A
:102AB00083F83D207B681B689B68FB60FB6823F004
:102AC0007703FB60FB6823F47F43FB607B681B6834
:102AD000FA689A603B681B68B3F5005F3ED0B3F5B7
:102AE000005F00F28780B3F5805F00F08580B3F56A
:102AF000805F7FD8702B1AD0702B7BD8602B50D082
:102B0000602B77D8502B3CD0502B73D8402B58D00B
:102B1000402B6FD8302B64D0302B6BD8202B60D05B
:102B2000202B67D8002B5CD0102B5AD062E07B683A
:102B300018683B6899683B685A683B68DB6800F036
:102B400042F97B681B689B68FB60FB6843F0770376
:102B5000FB607B681B68FA689A604EE07B681868C7
:102B60003B6899683B685A683B68DB6800F02BF962
:102B70007B681B689A687B681B6842F480429A6095
:102B80003BE07B6818683B6859683B68DB681A461D
:102B900000F0A2F87B681B685021184600F0F9F895
:102BA0002BE07B6818683B6859683B68DB681A460D
:102BB00000F0C0F87B681B686021184600F0E9F857
:102BC0001BE07B6818683B6859683B68DB681A46FD
:102BD00000F082F87B681B684021184600F0D9F8A5
:102BE0000BE07B681A683B681B681946104600F0CA
:102BF000D0F802E000BF00E000BF7B68012283F84C
:102C00003D207B68002283F83C20002318461037C3
:102C1000BD4680BD80B485B000AF786039607B6808
:102C20001B68FB607B68294A93420BD07B68B3F139
:102C3000804F07D07B68264A934203D07B68254AA1
:102C4000934208D1FB6823F07003FB603B685B682C
:102C5000FA681343FB607B681C4A93420BD07B6885
:102C6000B3F1804F07D07B68194A934203D07B6849
:102C7000184A934208D1FB6823F44073FB603B6819
:102C8000DB68FA681343FB60FB6823F080023B6853
:102C90005B691343FB607B68FA681A603B689A685B
:102CA0007B68DA623B681A687B689A627B68074ACD
:102CB000934203D13B681A697B681A637B680122DF
:102CC0005A6100BF1437BD4680BC7047002C0140DC
:102CD000000400400008004080B487B000AFF860F6
:102CE000B9607A60FB681B6A7B61FB681B6A23F032
:102CF0000102FB681A62FB689B693B613B6923F038
:102D0000F0033B617B681B013A6913433B617B69BC
:102D100023F00A037B617A69BB6813437B61FB681C
:102D20003A699A61FB687A691A6200BF1C37BD462E
:102D300080BC704780B487B000AFF860B9607A603B
:102D4000FB681B6A23F01002FB681A62FB689B6930
:102D50007B61FB681B6A3B617B6923F470437B6189
:102D60007B681B037A6913437B613B6923F0A003F3
:102D70003B61BB681B013A6913433B61FB687A699D
:102D80009A61FB683A691A6200BF1C37BD4680BC75
:102D9000704780B485B000AF786039607B689B680D
:102DA000FB60FB6823F07003FB603A68FB68134329
:102DB00043F00703FB607B68FA689A6000BF143732
:102DC000BD4680BC704780B487B000AFF860B96082
:102DD0007A603B60FB689B687B617B6923F47F437F
:102DE0007B613B681A027B681A43BB6813437A69AC
:102DF00013437B61FB687A699A6000BF1C37BD464C
:102E000080BC704780B485B000AF786039607B6863
:102E100093F83C30012B01D1022346E07B6801226C
:102E200083F83C207B68022283F83D207B681B6886
:102E30005B68FB607B681B689B68BB60FB6823F07A
:102E40007003FB603B681B68FA681343FB607B6898
:102E50001B68FA685A607B681B68164A93420ED05A
:102E60007B681B68B3F1804F09D07B681B68124AEE
:102E7000934204D07B681B68104A93420CD1BB6814
:102E800023F08003BB603B685B68BA681343BB6098
:102E90007B681B68BA689A607B68012283F83D20D2
:102EA0007B68002283F83C20002318461437BD4677
:102EB00080BC7047002C0140000400400008004026
:102EC00080B582B000AF78607B68002B01D1012310
:102ED0003FE07B6893F83D30DBB2002B06D17B6886
:102EE000002283F83C207868FEF790FC7B6824225F
:102EF00083F83D207B681B68DA687B681B6822F4D6
:102F00000052DA60786800F005F97B681B681A697E
:102F10007B681B6822F490421A617B681B685A69BF
:102F20007B681B6822F02A025A617B681B68DA689A
:102F30007B681B6842F40052DA607B6800221A64E6
:102F40007B68202283F83D207B68202283F83E2086
:102F5000002318460837BD4680BD80B58AB002AF51
:102F6000F860B9603B601346FB8000237B61FB681F
:102F700093F83D30DBB2202B7CD1BB68002B02D014
:102F8000FB88002B01D1012375E0FB6893F83C30EE
:102F9000012B01D102236EE0FB68012283F83C2063
:102FA000FB6800221A64FB68212283F83D20FEF7AB
:102FB000F3FD7861FB68FA889A84FB68FA88DA8402
:102FC000FB689B68B3F5805F08D1FB681B69002B29
:102FD00004D10023FB61BB68BB6103E0BB68FB61FC
:102FE0000023BB61FB68002283F83C202AE03B6899
:102FF00000937B6900228021F86800F040F80346C6
:10300000002B01D0032336E0FB69002B0BD1BB69F9
:103010001B881A46FB681B68C2F308025A60BB692A
:103020000233BB6107E0FB691A78FB681B685A60D2
:10303000FB690133FB61FB68DB8C9BB2013B9AB2FD
:10304000FB68DA84FB68DB8C9BB2002BCFD13B683A
:1030500000937B6900224021F86800F010F80346D5
:10306000002B01D0032306E0FB68202283F83D20DB
:10307000002300E0022318462037BD4680BD80B5FE
:1030800084B000AFF860B9603B601346FB712CE080
:10309000BB69B3F1FF3F28D0BB69002B07D0FEF717
:1030A0007BFD02463B68D31ABA699A421DD2FB687F
:1030B0001B68DA68FB681B6822F4D072DA60FB6870
:1030C0001B685A69FB681B6822F001025A61FB68A1
:1030D000202283F83D20FB68202283F83E20FB68F5
:1030E000002283F83C2003230FE0FB681B681A686A
:1030F000BB681340BA689A420CBF01230023DBB2BD
:103100001A46FB799A42C3D0002318461037BD46B1
:1031100080BD000080B584B000AF78607B681B681C
:103120001B6923F440517B68DA687B681B680A439B
:103130001A617B689A687B681B691A437B685B69C4
:103140001343BB607B681B68DB6823F4B05323F038
:103150000C037A681268B9680B43D3607B681B68FC
:103160005B6923F440717B689A697B681B680A433A
:103170005A617B681B682C4A934203D1FFF7BAFB64
:10318000F86002E0FFF7A2FBF860FA6813469B00C4
:1031900013449A001A447B685B689B00B2FBF3F30C
:1031A000224AA2FB03235B091901FA6813469B001C
:1031B00013449A001A447B685B689B00B2FBF3F2ED
:1031C0001A4BA3FB02035B09642000FB03F3D31A31
:1031D0001B013233154AA2FB03235B0903F0F00302
:1031E0001944FA6813469B0013449A001A447B68FA
:1031F0005B689B00B2FBF3F20C4BA3FB02035B0981
:10320000642000FB03F3D31A1B013233074AA2FBED
:1032100003235B0903F00F027B681B680A449A6072
:1032200000BF1037BD4680BD003801401F85EB51FF
:10323000014B1868704700BF0C00002070B50026D5
:103240000C4D0D4C641BA410A64209D102F0BAFD2E
:1032500000260A4D0A4C641BA410A64205D170BD7D
:1032600055F8043B98470136EEE755F8043B98477C
:103270000136F2E7DC620008DC620008DC6200086C
:10328000E062000803460244934200D1704703F80D
:10329000011BF9E7002B2DE9F0471F46BBBF03F1E7
:1032A00000431F4600232D2388B01446129A109D18
:1032B0001370149BDDF84CA023F02008B8F1460FE2
:1032C00005D0B8F1450F00D10135022300E00323FA
:1032D00007AA049206AACDE902A2CDE9003522464A
:1032E0003B4600F011FEB8F1470F064602D1119B94
:1032F000DB0722D5B8F1460F06EB050910D133786C
:10330000302B0AD10022002320463946FDF74CFB22
:1033100018B9C5F10105CAF80050DAF8003099442F
:103320000022002320463946FDF73EFB08B1CDF8C8
:103330001C903022079B4B4507D33046079B159ABC
:103340009B1B136008B0BDE8F087591C07911A70E9
:10335000F0E70346F7B5002903F8022BB6BF2D228C
:103360002B224942092942702BDD0DF10704A446A6
:103370000A2791FBF7F60A46A64607FB1615632AAD
:1033800005F13005314604F1FF340EF8015CF0DC44
:103390003031AEF1020504F8011C2946441C614598
:1033A0000AD30DF10902A2EB0E02654588BF002287
:1033B0001344181A03B0F0BD11F8012B04F8012FC3
:1033C000EDE7302330318370C170031DF1E7000059
:1033D0002DE9F04F91B00C46DDF8688016461F4687
:1033E000054601F033FD036818460993FCF7B0FE6B
:1033F00000230E93D8F800300A90073323F0070318
:1034000003F1080294F81890D4F800B0C8F800202E
:10341000D3E90023C4E91223D4E9128A2AF0004335
:103420000B934FF0FF3240469C4B0B99FDF7EEFAA1
:1034300070BB4FF0FF324046984B0B99FDF7C8FA2E
:1034400030BB0022002340465146FDF7B7FA10B1C9
:103450002D2384F84330924B9248B9F1470F94BF23
:103460009846804603234FF0000A23612BF00403A3
:10347000236033462146284600970FAA00F0D4F96E
:10348000013040F090804FF0FF3011B0BDE8F08F78
:103490004246534640465146FDF7B8FA48B1BAF1A4
:1034A000000FB8BF2D238048B8BF84F843307F4B4E
:1034B000D3E7636809F0DF015A1C42D10623636039
:1034C000002206920EAACDE904920DAA4BF4806365
:1034D00003920DF13302CDE9013223606368424665
:1034E0000093284653460B91FFF7D4FE0B99804674
:1034F00047290D9908D1C81C02DB6368994240DD59
:10350000A9F102095FFA89F9B9F1650F1FD84A4696
:10351000013904F150000D91FFF71BFF0E9A82460E
:103520001318012A236102DC2268D20701D5013376
:1035300023619DF83330002B9BD02D2384F843303A
:1035400097E74729BCD1002BBAD10123B7E7B9F1DE
:10355000660F18D1002963680BDD216113B9226859
:10356000D00702D501330B4423614FF0000AA16557
:10357000DFE713B92268D20701D50233F4E701234C
:10358000F2E74FF067090E9B994205DB2368216142
:10359000D807EAD54B1CE7E70029CCBF0122C1F1CF
:1035A00002021344E0E723685A0507D42369424620
:1035B00031462846B84701302BD164E7B9F1650F91
:1035C00040F2DD80D4E9120100220023FDF7ECF97E
:1035D000002833D0012331462846354AB847013008
:1035E0003FF451AFDDE90D239A4202DB2368D8078F
:1035F0000FD5DDE9092331462846B84701303FF4AD
:1036000042AF4FF0000804F11A090E9B013B4345FD
:1036100009DC23689B0700F10281E0680F9B984258
:10362000B8BF184631E701234A4631462846B84715
:1036300001303FF428AF08F10108E6E70D9B002BAD
:1036400038DC012331462846194AB84701303FF497
:103650001AAFDDE90D23134302D12368D907D8D56A
:10366000DDE9092331462846B84701303FF40BAF66
:103670004FF0000904F11A0A0D9B5B424B4501DC37
:103680000E9B94E70123524631462846B847013045
:103690003FF4F9AE09F10109EEE700BFFFFFEF7F4C
:1036A000045F0008085F0008105F00080C5F000856
:1036B000145F00080E9AA36D9A42A8BF1A46002A0A
:1036C000914637DC4FF0000B29EAE97904F11A0240
:1036D000D4F858A0AAEB09035B4533DCDDE90D23E0
:1036E0009A423BDB2368DA0738D40E9B0D99A3EB93
:1036F0000A02A3EB01099145A8BF9146B9F1000F59
:1037000034DC4FF0000829EAE97904F11A0ADDE90E
:103710000D239B1AA3EB090343457FF77AAF0123DF
:10372000524631462846B84701303FF4ACAE08F166
:103730000108ECE71346314642462846B8470130B7
:10374000C0D1A0E60123314628460B92B84701308C
:103750003FF499AE0B9A0BF1010BB9E73146DDE965
:1037600009232846B8470130BFD18CE64B46314685
:10377000284608EB0A02B8470130C2D183E60E9A08
:10378000012A01DCDB0737D50123424631462846B2
:10379000B84701303FF477AEDDE9092331462846CA
:1037A000B84701303FF46FAED4E912010022002384
:1037B000FDF7FAF8D8B90E9B08F10102013B31463A
:1037C0002846B84701300ED15DE601234A4631460E
:1037D0002846B84701303FF456AE08F101080E9B69
:1037E000013B4345F1DC534604F15002E0E64FF063
:1037F000000804F11A09F2E701234246DFE701233A
:103800004A4631462846B84701303FF43CAE08F1FD
:103810000108E3680F995B1A4345F0DCFDE64FF0C1
:10382000000804F11909F4E72DE9F0471646994616
:103830008A680B6907469342B8BF1346336091F814
:1038400043200C46DDF820800AB101333360236841
:10385000990642BF336802333360256815F00605C8
:1038600006D104F1190AE36832689B1AAB4228DCDE
:1038700094F84320131E226818BF012392062DD40A
:103880004946384604F14302C047013020D023683E
:10389000E56803F00603042B18BF002532684FF0DB
:1038A0000006A36808BFAD1A226908BF25EAE575BE
:1038B0009342C4BF9B1AED181A34B5421AD10020A6
:1038C00008E00123524649463846C047013003D13B
:1038D0004FF0FF30BDE8F0870135C4E73020E11834
:1038E00081F843005A1C94F845102244023382F8B0
:1038F0004310C5E70123224649463846C0470130F8
:10390000E6D00136D9E700002DE9FF470F7E91464A
:10391000782F80460C469A460C9D01F1430207D849
:10392000622F0AD8002F00F0D980582F00F0A48011
:1039300004F1420584F842703AE0A7F16303152BC5
:10394000F6D801A151F823F0A1390008B5390008D3
:10395000313900083139000831390008313900089F
:10396000B53900083139000831390008313900080B
:1039700031390008C33A0008E5390008A53A0008C3
:103980003139000831390008E53A000831390008BA
:10399000E53900083139000831390008AD3A00082E
:1039A0002B681A1D1B682A6004F1420584F8423016
:1039B0000123A4E020682968060601F104030AD562
:1039C0000E682B60002E03DA2D23764284F84330F4
:1039D0000A235E4819E00E6810F0400F2B6018BFF4
:1039E00036B2EFE72B682068191D2960010601D562
:1039F0001E6802E04606FBD51E886F2F0CBF082309
:103A00000A235248002184F843106568002DA8BF9E
:103A10002168A560A4BF21F0040121600EB9002D2A
:103A20004DD01546B6FBF3F103FB1167C75D05F8F2
:103A3000017D3746BB420E46F4D9082B0BD12368D3
:103A4000DE0708D5236961689942DEBF302305F897
:103A5000013C05F1FF35521B22614B462146404691
:103A6000CDF800A003AAFFF7DFFE01304CD14FF0E4
:103A7000FF3004B0BDE8F087344881F8457029680C
:103A8000236851F8046B29601D0614D5DF0744BF75
:103A900043F0200323601EB9236823F02003236032
:103AA0001023AFE7236843F02003236078232848DE
:103AB00084F84530E3E7590648BFB6B2E6E7154655
:103AC000BBE72B682668181D6169286035061B68EE
:103AD00001D5196002E07006FBD519800023154658
:103AE0002361BAE72B6800211A1D2A601D686268ED
:103AF000284601F01FFA08B1401B6060636823612B
:103B0000002384F84330A8E72A4649464046236903
:103B1000D0470130ABD023689B0713D4E068039BE8
:103B20009842B8BF1846A4E70123324649464046AA
:103B3000D04701309BD00135E36803995B1AAB4253
:103B4000F2DCEBE7002504F11906F5E7165F000843
:103B5000275F00080FB40A4B13B51C6824B1A36992
:103B600013B9204601F0D4F805AB2046049AA168A9
:103B7000019301F095FE02B0BDE8104004B070471B
:103B80000C00002070B50E46054618B183690BB9CC
:103B900001F0BEF8AB69AC6813B9284601F0B8F87B
:103BA0002C4B9C4220D16C68636EDB0705D4A38943
:103BB000980502D4A06D01F04EF9A38919071DD50F
:103BC0002369DBB1013EA36816F8011F013BA36026
:103BD00039BB002B38DA22460A21284600F048F883
:103BE000013011D00A2511E01B4B9C4201D1AC6879
:103BF000DAE71A4B9C4208BFEC68D5E72146284615
:103C000000F088F80028DDD04FF0FF35636EDA074A
:103C100005D4A3899B0502D4A06D01F01DF92846A7
:103C200070BD002B04DAA2699A4206DC0A2904D08E
:103C300023685A1C22601970C5E72246284600F006
:103C400017F80130BFD1DFE70A2523685A1C22602C
:103C50001D70DBE7E85F000808600008C85F000827
:103C6000024B01461868FFF78DBF00BF0C00002013
:103C7000F8B50E461446054618B183690BB901F034
:103C800047F8214B9C422BD16C68A369A360A389A0
:103C90001A072FD523696BB323692068F6B2C01ABF
:103CA00063693746834204DC2146284600F09CFFC6
:103CB00030BBA3680130013BA36023685A1C22601B
:103CC0001E706369834204D0A389DB0706D50A2EE0
:103CD00004D12146284600F087FF88B93846F8BD50
:103CE0000A4B9C4201D1AC68CFE7094B9C4208BF0C
:103CF000EC68CAE72146284600F00CF80028CBD033
:103D00004FF0FF37EAE700BFE85F000808600008EF
:103D1000C85F0008324B70B51D6806460C4625B1D9
:103D2000AB6913B9284600F0F3FF2E4B9C420FD12C
:103D30006C68A389B4F90C2019072CD4DD0611D4C2
:103D40000923336042F040034FF0FF30A3813EE08F
:103D5000254B9C4201D1AC68EBE7244B9C4208BF49
:103D6000EC68E6E7580712D5616B41B104F14403F2
:103D7000994202D0304601F08FFC00236363A3898F
:103D800023F02403A3810023636023692360A389B4
:103D900043F00803A38123694BB9A38903F420737B
:103DA000B3F5007F03D02146304601F07BF8A089AF
:103DB000B4F90C2010F001030AD00023A36063695A
:103DC0005B42A361236943B910F08000BAD170BD92
:103DD000810758BF6369A360F4E70020F7E700BFDD
:103DE0000C000020E85F000808600008C85F0008B9
:103DF0002DE9F74F03690C690746A342C0F28280A0
:103E0000013C00F1140501F1140805EB8403019352
:103E100058F8243055F8242001339A42B2FBF3F6C7
:103E20004FEA840B08EB840931D34FF0000E404673
:103E3000AC46F24650F8042B93B206FB03E3120C97
:103E40004FEA134E9BB206FB02E2AAEB0303DCF837
:103E500000A04FEA124E1FFA8AFA5344DCF800A081
:103E600092B2C2EB1A4202EB23429BB243EA0243F4
:103E700081454FEA224A4CF8043BDBD255F80B301F
:103E80002BB9019B043B9D421A462FD33C61384617
:103E900001F0EAFA002825DB28464FF0000C013635
:103EA00058F8041BD0F800E08BB2ACEB03031FFA08
:103EB0008EF213440A0CC2EB1E4202EB23429BB269
:103EC00043EA0243C1454FEA224C40F8043BE7D2A3
:103ED00055F8242005EB840322B9043B9D421A4681
:103EE0000AD33C61304603B0BDE8F08F1268043B52
:103EF000002ACBD1013CC6E71268043B002AF0D16E
:103F0000013CEBE70020EEE72DE9F04F16461F4697
:103F1000446A99B00546CDE90467DDF8948074B928
:103F2000102000F0FFFF0246686220B9EA21A84B8A
:103F3000A84801F04BFEC0E901440460C4606B6A0C
:103F4000196851B15A68012393404A608B60284632
:103F500001F04CF800226B6A1A603B1EAFBF0023D1
:103F6000012223F000430593A8BFC8F80030DDF814
:103F70001490994BB8BFC8F8002033EA090319D14F
:103F800042F20F73249A1360C9F31303334300F012
:103F90007F85269B53B9914B22E0914B03930833C5
:103FA000269A1360039819B0BDE8F08F8B4B0393EA
:103FB0000333F5E7DDE90434CDE90C34DDE90C0128
:103FC00000220023FCF7F0FC804658B10123249A1C
:103FD0001360269B002B00F0588582481860431E12
:103FE0000393DFE716AB019317AB00932846DDE997
:103FF0000C2301F0E1FAC9F30A548346002C7FD068
:10400000DDE90C010D9BA4F2FF34C3F3130343F06D
:104010007F5141F44011CDF84C800022724BFCF7E7
:10402000A3F865A3D3E90023FCF756FA64A3D3E908
:104030000023FCF79BF8064620460F46FCF7E2F902
:1040400061A3D3E90023FCF747FA02460B4630464A
:104050003946FCF78BF806460F46FCF7EDFC0022CC
:104060008246002330463946FCF7A8FC48B150464A
:10407000FCF7C8F932463B46FCF796FC08B90AF152
:10408000FF3ABAF1160F58D8DDE90C01574B03EB94
:10409000CA03D3E90023FCF791FC00284FD000238A
:1040A0000AF1FF3A0F93169B1C1B631E099349BF2D
:1040B000C4F1010300230693002354BF0693099320
:1040C000BAF1000F3DDB099BCDF838A053440993AA
:1040D00000230A93229B092B00F28C80052BC4BF7E
:1040E000043B2293229BC8BF0024A3F10203D8BF44
:1040F0000124032B00F28A80DFE803F02D4F4D5B93
:10410000DDE916431C4404F23243202BC3BFC3F144
:10411000400304F2124009FA03F3C3F12003C6BFBF
:1041200026FA00F0184306FA03F0FCF75BF90123C6
:10413000A1F1F871013C13936FE70123B2E70F90EF
:10414000B1E7069BA3EB0A030693CAF100030A93A7
:1041500000230E93BEE700230B93239B002B58DC18
:104160004FF001094B46CDF82090CDF88C900022FD
:10417000686A4260042202F114069E4241684ED9E8
:10418000284600F0F3FE039000284CD102464FF47D
:10419000D571174BCCE60123DEE700230B93239B5D
:1041A0000AEB030909F10103012B0893B8BF0123AE
:1041B000DDE70123F2E700BF61436F63A787D23FCA
:1041C000B3C8608B288AC63FFB799F501344D33F06
:1041D000455F00085C5F00080000F07F415F000859
:1041E000385F0008155F00080000F83FB060000865
:1041F000B75F0008012400230B9422934FF0FF398E
:1042000000221223CDF820902392B0E701230B93D4
:10421000F4E7DDF88C904B46CDF82090A7E701310C
:1042200041605200A7E76B6A039A1A60089B0E2B45
:1042300000F2A880002C00F0A580BAF1000F34DD58
:104240009A4A0AF00F0302EBC3031AF4807FD3E902
:104250000034CDE910344FEA2A1416D0DDE90C0100
:10426000934B0327D3E90823FCF760FACDE9040157
:1042700004F00F048E4E54B9DDE91023DDE904018A
:10428000FCF754FACDE9040129E00227F2E7E1073F
:1042900008D5DDE91001D6E90023FCF71DF9CDE9C9
:1042A0001001013764100836E5E700F0A580DDE96C
:1042B0000C01CAF100047D4B04F00F0203EBC203B2
:1042C000D3E90023FCF708F902270023CDE9040114
:1042D000774E2411002C40F08480002BD2D10F9B0C
:1042E000002B00F08B80DDE90434CDE91034DDE9EA
:1042F000100100226F4BFCF761FB00287ED0089B69
:10430000002B7BD0B9F1000F38DDDDE91001002270
:10431000694BFCF7E1F84C46CDE904010AF1FF389E
:1043200001373846FCF76EF8DDE90423FCF7D4F8D2
:104330000022624BFBF71AFFA1F15076CDE9100184
:104340001196002C5DD1DDE9040100225C4BFBF7E6
:104350000BFF02460B46CDE904233346109AFCF7C7
:104360004BFB002840F09C82DDE90401109A06F125
:104370000043FCF723FB002840F09082DDE90C3479
:10438000CDE90434179B002BC0F25281BAF10E0F15
:1043900000F34E81454B03EBCA03D3E90034CDE96A
:1043A0000634239B002B80F2DB80089B002B00F35C
:1043B000D78040F07282DDE906010022404BFCF715
:1043C0008BF8DDE90423FCF70DFB089C264600284A
:1043D00040F048823123039F0AF1010A07F8013BAC
:1043E00044E2E20705D5D6E90023FCF775F801237E
:1043F0000137641008366DE7022770E7D046089C45
:104400008FE70399294B214412910B9903EBC403C5
:10441000DDE9106753E90223002955D0002029491E
:10442000FCF784F93B463246FBF79EFECDE91001CE
:10443000039FDDE90401FCF7FFFA0446FBF7E2FF06
:1044400002460B46DDE90401FBF78EFE02460B46F1
:104450003034CDE90423DDE9102307F8014BFCF7E4
:10446000ADFA002874D1DDE9042300201149FBF7DF
:104470007BFEDDE91023FCF7A1FA002840F0B780AD
:10448000129B9F423FF47AAFDDE9100100220A4BF4
:10449000FCF722F80022CDE91001DDE90401064B0A
:1044A000FCF71AF8CDE90401C3E700BFB0600008CB
:1044B000886000080000F03F0000244000001C401D
:1044C000000014400000E03F30463946FCF704F895
:1044D000129BCDE91001039C1493DDE90401FCF764
:1044E000ABFA1590FBF78EFF02460B46DDE904019F
:1044F000FBF73AFE159B0646303304F8013B129B4E
:104500000F469C424FF0000224D1DDE91001B04B70
:10451000FBF72CFE02460B4630463946FCF76CFA98
:10452000002863D1DDE910230020A949FBF71CFE18
:1045300002460B4630463946FCF740FA00283FF465
:104540001DAF149F7B1E149317F8013C302BF8D03D
:10455000C2463BE09F4BFBF7BFFFCDE90401BCE740
:10456000039FDDE90489DDE9062340464946FCF75F
:10457000DDF8FCF761FA0446FBF744FFDDE90623AA
:10458000FBF7AAFF02460B4640464946FBF7ECFD07
:1045900004F1300607F8016B039EDDF820C0BE1B56
:1045A000B44502460B4636D1FBF7E0FDDDE90623B4
:1045B00080468946FCF720FA58BBDDE906234046D1
:1045C0004946FCF7F1F908B1E10722D428465946DB
:1045D00000F00CFD00233B70249B0AF101001860E1
:1045E000269B002B3FF4DEAC1F60DBE427463B46F6
:1045F0001F4613F8012D392A07D1039A9A42F7D1A1
:104600003022039908F101080A701A7801321A70F1
:104610009EE7D046EBE700226E4BFBF75DFF0022E2
:10462000002380468946FCF7BFF900289BD0CDE7E0
:104630000B9A002A00F0D080229A012A00F3AE8063
:10464000139A002A00F0A68003F233430A9C069FC7
:10465000069A01211A440692099A28461A44099298
:1046600000F07AFD0646002F0CDD099B002B09DDCA
:10467000BB42A8BF3B46069AFF1AD21A0692099A75
:10468000D31A09930A9BF3B10B9B002B00F0A8806F
:10469000002C10DD31462246284600F01BFE5A460B
:1046A00001460646284600F06DFD804659462846DC
:1046B00000F09CFCC3460A9B1A1B04D059462846AE
:1046C00000F008FE83460121284600F045FD0E9BC0
:1046D0000446002B40F386801A460146284600F027
:1046E000F9FD229B0446012B7FDD4FF00008236972
:1046F00004EB8303186900F0E1FCC0F12000099B82
:10470000184410F01F0000F09280C0F12003042B29
:1047100040F38A80C0F11C00069B074403440693C3
:10472000099B03440993069B002B05DD59461A4655
:10473000284600F029FE8346099B002B05DD214613
:104740001A46284600F020FE04460F9B002B70D02E
:104750002146584600F088FE00286ADA00235946B0
:104760000A22284600F064FC0B9B83460AF1FF3ABC
:10477000002B00F09481314600230A22284600F0E5
:1047800057FCB9F1000F064600F39380229B022BE1
:1047900057DC8EE0169BC3F1360357E7089B5C1E7F
:1047A0000A9BA342B7BF0A9B1C1BE21A0E9BBEBF0B
:1047B0000A949B180E93089BB8BF0024002BBBBF24
:1047C000069B089A069F9F1AACBF089B00233FE7F1
:1047D0000000E03F000024400A9C069F0B9E42E739
:1047E0000A9A6BE7229B012B19DC049BBBB9059B42
:1047F000C3F313039BB9059B23F000431B0D1B055B
:1048000083B14FF00108069B01330693099B0133E6
:1048100009930E9B002B7FF46AAF01206FE74FF0E6
:104820000008F6E79846F4E73FF47DAF18461C30E1
:1048300072E7089B002B36DC229B022B33DDDDF870
:104840002090B9F1000F0DD121464B460522284694
:1048500000F0EEFB01460446584600F005FE002835
:104860003FF7B8AD239B039F6FEA030A4FF00008A0
:104870002146284600F0BAFB002E3FF4A7AEB8F15F
:10488000000F05D0B04503D04146284600F0AEFBEE
:104890003146284600F0AAFB98E600242646E1E7C8
:1048A000C246264696E50B9BDDF82090002B00F0D3
:1048B000FD80002F05DD31463A46284600F064FDB4
:1048C0000646B8F1000F5CD02846716800F04EFB38
:1048D000074628B9024640F2EA217F4BFFF728BB82
:1048E000326906F10C01023292000C3000F030FB0C
:1048F00001223946284600F047FDB0460646039B94
:1049000001330893039B4B440A93049B03F0010378
:104910000993089B2146013B58460493FFF768FA28
:10492000034641463033069058460B9300F09CFDF9
:10493000324681462146284600F0B2FDC26807464D
:104940000B9B02BB0146584600F08EFD02460B9BB6
:1049500039462846CDE90B3200F048FB229B0C9AE1
:10496000089F43EA0201099B0B430B9B0DD1392B96
:1049700029D0B9F1000F01DD069B3133049A137081
:1049800076E73046B9E70122E2E7B9F1000F06DB2E
:10499000229941EA0909099959EA010120D1002A1D
:1049A000ECDD594601222846089300F0EDFC214633
:1049B000834600F059FD0028089B02DCDED1DA07AF
:1049C000DCD5392BD8D13923049A13703B461F46C6
:1049D00017F8012C013B392A50D001321A7047E7F1
:1049E000002A03DD392BEED00133C7E7089A0A9974
:1049F00002F8013C8A422AD0594600230A2228465E
:104A000000F016FBB04583464FF000034FF00A025A
:104A10004146284607D100F00BFB80460646089B1E
:104A20000133089375E700F003FB3146804600230D
:104A30000A22284600F0FCFA0646F0E7B9F1000F1A
:104A4000CCBF4F4601274FF00008039A1744594640
:104A500001222846089300F097FC2146834600F087
:104A600003FD0028B2DC02D1089BDB07AED43B4635
:104A70001F4613F8012D302AFAD0F9E6039A9A421C
:104A8000A5D131230AF1010A79E7144BFFF7A8BA3F
:104A9000269B002B7FF481AA114BFFF7A1BAB9F135
:104AA000000F03DC229B022B3FF7CBAE039F214676
:104AB0005846FFF79DF9039A00F1300307F8013BD0
:104AC000BA1A9145BADD594600230A22284600F059
:104AD000AFFA8346EBE700BFB75F0008145F00083A
:104AE000385F00088A89F8B5054610070C4657D488
:104AF0004B68002B04DC0B6C002B01DC0020F8BDA4
:104B0000E66A002EFAD0002312F480522F682B6040
:104B100032D0606DA3895A0705D56368C01A636BEC
:104B20000BB1236CC01A00230246E66A2846216AAC
:104B3000B047431CA38906D129681D292CD8294ACE
:104B4000CA40D60728D5002262602269D9042260B3
:104B500004D5421C01D12B6803B96065616B2F60DD
:104B60000029CBD004F14403994202D0284600F03A
:104B700093FD00206063C2E7216A01232846B04705
:104B8000411CC7D12B68002BC4D01D2B01D0162B84
:104B900001D12F60B2E7A38943F04003A381AEE7C0
:104BA0000F69002FAAD0930718BF00230E6808BF13
:104BB0004B69F61B0F608B60002E9FDD33463A4633
:104BC0002846216AD4F828C0E047002806DCA389DB
:104BD0004FF0FF3043F04003A38190E70744361ABB
:104BE000EAE700BF0100402038B50B6905460C46D6
:104BF00013B90025284638BD18B183690BB900F0F8
:104C000087F8144B9C421BD16C68B4F90C30002B14
:104C1000EFD0626ED00704D4990502D4A06D00F0E5
:104C20001AF928462146FFF75DFF636E0546DA074D
:104C3000E0D4A3899B05DDD4A06D00F00DF9D9E780
:104C4000054B9C4201D1AC68DFE7044B9C4208BF96
:104C5000EC68DAE7E85F000808600008C85F000851
:104C6000002310B50446C0E90033C0E90433836073
:104C700081814366C2818361194608225C30FEF758
:104C800001FB054B24626362044BA362044BE362A5
:104C9000044B236310BD00BF215B0008435B000889
:104CA0007B5B00089F5B0008014900F0AFB800BFC4
:104CB000E94B0008682270B54D1E55430E4605F1BC
:104CC000740100F051FD044640B10021C0E9001616
:104CD0000C30A06005F16802FEF7D4FA204670BDE2
:104CE000014800F0B8B800BFB1020020014800F050
:104CF000B3B800BFB1020020014800F0ACB800BF5B
:104D0000B2020020014800F0A7B800BFB2020020A4
:104D100010B50446FFF7F0FFA3691BB1BDE81040D2
:104D2000FFF7F0BFC4E912332365134B134A1B6826
:104D3000A262A34208BF0123204608BFA36100F07E
:104D40001FF86060204600F01BF8A060204600F0CD
:104D500017F800220421E0606068FFF781FF01225C
:104D60000921A068FFF77CFF02221221E068FFF70B
:104D700077FF0123A361D1E7005F0008A94C000879
:104D8000F8B50746FFF7ACFF1E4B1E68B36913B9B1
:104D90003046FFF7BDFF4836D6E90134013B03D565
:104DA00033680BB33668F7E7B4F90C50D5B9164B36
:104DB00004F15800E360656600F04CF8FFF796FFD9
:104DC00008222946C4E90155C4E904552560A561B6
:104DD00004F15C00FEF756FAC4E90D55C4E912551A
:104DE0002046F8BD6834D9E704213846FFF762FF52
:104DF000044630600028D5D1FFF778FF0C233B60D4
:104E0000EEE700BF005F00080100FFFF2DE9F84357
:104E100006468846002700F14804D4E90195B9F117
:104E2000010905D52468002CF7D13846BDE8F88380
:104E3000AB89012B07D9B5F90E30013303D02946D0
:104E40003046C04707436835E9E70000004870472F
:104E50006001002070477047704770B50E46B1F989
:104E60000E10144600291D4696B008DA0022B6F945
:104E70000C302A601A0610D44FF480630EE06A46A4
:104E800000F0E4FE0028F1DB019A02F47042A2F582
:104E900000535A425A412A60EEE740230020236023
:104EA00016B070BD8B8973B59D0706460C4607D5B5
:104EB00004F14703236023610123636102B070BDE5
:104EC0006A4601ABFFF7C9FF00990546304600F07E
:104ED0004BFC48B9B4F90C309A05EFD423F0030326
:104EE00043F00203A381E3E70D4BB362A389206083
:104EF00043F08003A381009B20616361019B5BB150
:104F00003046B4F90E1000F0B3FE28B1A38923F0A7
:104F1000030343F00103A381A0890543A581CDE7E5
:104F2000A94C0008024B0146186800F01DBC00BFE8
:104F30000C000020034610B5C9B202449342184643
:104F400001D1002003E0047801338C42F6D110BD7A
:104F50000A44914200F1FF3300D1704710B511F8B7
:104F6000014B914203F8014FF9D110BD70B5466A6B
:104F700004460D4676B91020FFF7D4FF0246606262
:104F800020B96621174B184800F020FEC0E90166E1
:104F90000660C660666AF36883B1636ADB6853F8CB
:104FA0002500B8B9012101FA05F6721D20469200CC
:104FB00000F05EFB60B1C0E901560EE02122042141
:104FC000204600F055FB636AF060DB68002BE4D1FB
:104FD000002070BD026843F825200023C0E9033398
:104FE000F7E700BF455F00082860000870B5466A13
:104FF00005460C4676B91020FFF794FF024668621A
:1050000020B98A21084B094800F0E0FDC0E901669B
:105010000660C6603CB16B6A6268DB6853F82210B8
:10502000216043F8224070BD455F000828600008F9
:105030002DE9F04107460C461E4600200D6901F19E
:10504000140CDCF80030013099B202FB01611E0C37
:105050000B0C02FB063389B201EB034185424FEA98
:1050600013464CF8041BECDC0EB3A368AB4219DC0E
:10507000616838460131FFF779FF804628B902465A
:10508000B5210C4B0C4800F0A1FD226904F10C0184
:10509000023292000C30FFF75BFF21463846FFF7E3
:1050A000A5FF444604EB850301355E61256120467A
:1050B000BDE8F081B75F000828600008020C120408
:1050C0000346CAB90304102013F07F4F04BF1B022C
:1050D000083013F0704F04BF1B01043013F0404F31
:1050E00004BF9B000230002B05DB13F0804F00F162
:1050F000010008BF202070470020E5E70368024652
:1051000013F007000BD0D90721D4980749BF5B08DB
:105110009B08012013605CBF02201360704799B2A6
:1051200009B910201B0CD9B209B908301B0A19079C
:1051300004BF1B090430990704BF9B080230D9073C
:1051400003D45B0800F1010003D013607047002016
:10515000704720207047000010B50C460121FFF772
:1051600005FF024628B94FF4A071044B044800F033
:105170002DFD01234461036110BD00BFB75F00082E
:10518000286000082DE9F04F91460A69D9F81030DF
:105190000C469A42BEBF0B464C4699462769D9F841
:1051A00010A0A368616807EB0A06B34285B0B8BFD8
:1051B0000131FFF7DBFE30B9024640F25D11434B8F
:1051C000434800F003FD00F114052B46002205EBD7
:1051D0008608434521D304F1140303EB870709F143
:1051E000140303EB8A0202923A1B153A22F00302DF
:1051F000043204F115018F4238BF04220192029A51
:1052000003939A420CD8002E03DD58F8043D002B7E
:1052100059D0066105B0BDE8F08F43F8042BD8E7FC
:10522000B3F800A0BAF1000F23D0A9464FF0000C4C
:1052300004F1140E5EF8042BD9F800101FFA82FB5B
:1052400089B20AFB0B116144D9F800C0120C4FEA75
:105250001C4C0AFB02C202EB114289B241EA024134
:1052600077454FEA124C49F8041BE3D8019A45F8F8
:1052700002C0039A0433B2F80290B9F1000F20D0B3
:10528000AE464FF0000A296804F1140CBCF800B0D7
:10529000BEF8022089B209FB0B22924441EA0A417E
:1052A0004EF8041B5CF8042BBEF80010120C09FB2E
:1052B0000211674501EB1A414FEA114AE6D8019AFB
:1052C000A95004359BE7013E9DE700BFB75F00088A
:1052D000286000082DE9F843154612F0030206463F
:1052E0000F4607D0254C013A002354F82220FFF73F
:1052F0009FFE0746AD103DD0746A7CB91020FFF7C1
:1053000011FE0246706228B94FF4D7711C4B1D483C
:1053100000F05CFCC0E901440460C460D6F824805D
:10532000D8F808404CB940F271213046FFF714FF1D
:1053300000230446C8F8080003604FF00009EB079B
:105340000AD5394622463046FFF71CFF80463946CB
:105350003046FFF74BFE47466D100BD0206838B93A
:10536000224621463046FFF70DFF2060C0F800902E
:105370000446E4E73846BDE8F88300BF78610008DA
:10538000455F0008286000082DE9F0470C460746F5
:1053900091462369496803EB6218A3684FEA621AD1
:1053A00008F10106B3420BDB3846FFF7DFFD054687
:1053B00048B9024640F2D911294B2A4800F006FCB0
:1053C00001315B00EEE7002300F1140100F110024F
:1053D0001846534537DB20692AEAEA7A04F11403B8
:1053E00019F01F0901EB8A0103EB80002FD08A46D8
:1053F0004FF0000CC9F1200E1A6802FA09F242EAD5
:105400000C024AF8042B53F8042B984222FA0EFCA3
:10541000F2D8031B153B23F00303043304F11502F8
:10542000904238BF042341F803C0BCF1000F01D003
:1054300008F10206013E384621462E61FFF7D6FDEF
:105440002846BDE8F08742F8040F0133C1E704396C
:1054500053F8042B984241F8042FF9D8EAE700BF2B
:10546000B75F00082860000803460A69006930B584
:10547000801A0DD11433143103EB820401EB820145
:1054800054F8045D51F8042D954202D004D3012054
:1054900030BDA342F4D3FBE74FF0FF30F8E7000044
:1054A0002DE9F84F0D460746114628461446FFF7EA
:1054B000DBFF061E11D131463846FFF757FD024685
:1054C00028B940F232213A4B3A4800F07FFB0123E1
:1054D000C0E904361046BDE8F88FA4BF23462C4629
:1054E00038466168A6BF1D4600260126FFF73EFD2F
:1054F000024618B94FF410712D4BE5E702F114087C
:10550000C2464FF0000C2769C6602E6904F11400F2
:1055100005F1140900EB870E09EB8606103454F8E8
:1055200004BF59F8043B1FFA8BF18C4499B21B0C51
:10553000ACEB0101C3EB1B4303EB214389B24FEA00
:10554000234C4E4541EA03434AF8043BE7D8731B1A
:10555000153B23F0030315350433AE4238BF042353
:10556000184443441E46054675450ED30EF103010B
:10557000091A21F003010338864538BF0021194478
:1055800051F8043D8BB11761A4E755F8048B1FFA5D
:1055900088F161440C1404EB184489B241EA0441D7
:1055A0004FEA244C46F8041BDEE7013FE8E700BF62
:1055B000B75F0008286000082DE9F3410121DDE90B
:1055C000087690461D46FFF7D1FC044630B90246E6
:1055D00040F20A31244B254800F0F8FAC5F31303D2
:1055E000C5F30A552DBB0193B8F1000326D06846D8
:1055F0000093FFF783FD0099F0B1019AC0F12003F9
:1056000002FA03F30B43C24063610192019B002B3A
:1056100014BF02210121A3612161C5B1A5F2334567
:105620000544C0F135003D603060204602B0BDE861
:10563000F08143F48013D6E76161E7E701A8FFF743
:105640005DFD0121019B216163612030E5E704EBF1
:105650008103A0F2324038601869FFF72FFDC0EBDC
:1056600041113160E1E700BFB75F00082860000822
:1056700070B5A1FB025434B9294600F075F806460E
:1056800028B9304670BD0C2200260260F9E72A4690
:105690002146FDF7F7FDF4E738B50546002940D06F
:1056A00051F8043C0C1F002BB8BFE41800F014FBA9
:1056B0001C4A136833B9636014602846BDE838405B
:1056C00000F010BBA34208D9206821188B4201BF0B
:1056D00019685B6809182160EDE71A465B680BB131
:1056E000A342FAD911685018A0420BD12068014496
:1056F000501883421160E0D118685B680144116062
:105700005360DAE702D90C232B60D6E72068211812
:105710008B4201BF19685B6809182160636054609F
:10572000CBE738BDB402002070B50E4E0C46316890
:10573000054611B900F0E4F930602146284600F032
:10574000DFF9431C0AD0C41C24F00304A04207D094
:10575000211A284600F0D4F9013001D14FF0FF346E
:10576000204670BDB80200202DE9F041CD1C25F087
:10577000030508350C2D38BF0C25002D074601DB2D
:10578000A94205D90C2300263B603046BDE8F081D4
:105790002E4E00F0A1FA33681C4634BB2946384629
:1057A000FFF7C2FF431C04464DD134682646002E45
:1057B00040D123683146384604EB030800F0A0F9D5
:1057C00080453AD1216803356D1A25F00305083567
:1057D0000C2D38BF0C2538462946FFF7A5FF0130B0
:1057E0002BD023682B4423600EE02268521B1ED46A
:1057F0000B2A16D96119A342256018BF5960636846
:1058000008BF316062514B60384604F10B0600F06E
:1058100069FA26F00706231DF21AB6D09B1BA35087
:10582000B3E76268A3420CBF32605A60ECE72346DC
:105830006468B2E734467668B9E70C2338463B60C3
:1058400000F050FAA1E72560DEE700BFB4020020B7
:10585000936810B4013B002B936007DA9469A3426C
:1058600001DB0A2902D110BCFEF702BA1368581CEA
:1058700010601970084610BC7047F8B506460F4610
:105880001446D518AC4201D1002007E03A46304614
:1058900014F8011BFFF7DCFF431CF3D1F8BD000037
:1058A0002DE9F04F0D461446984606469DB018B1B6
:1058B00083690BB9FFF72CFA894B9D421BD17568A0
:1058C0006B6ED90705D4AB899A0502D4A86DFFF792
:1058D000C2FAAB891B0701D52B69EBB929463046C3
:1058E000FEF718FAC0B16B6EDC070ED54FF0FF3033
:1058F0001DB0BDE8F08F7B4B9D4201D1B568DFE75D
:10590000794B9D4208BFF568DAE7AB899805EDD47D
:10591000A86DFFF7A1FAE9E70023099320238DF88A
:10592000293030234FF00109CDF80C80DFF8BC811D
:105930008DF82A3023469A4613F8012B0AB1252AFE
:10594000F9D1BAEB040B0BD05B4622462946304610
:10595000FFF793FF013000F0AA80099A5A44099298
:105960009AF80030002B00F0A28000234FF0FF32A5
:10597000CDE905230AF1010A049307938DF853300A
:105980001A935446052214F8011B5848FFF7D2FA1F
:10599000049AD8B9D10644BF20238DF85330130799
:1059A00044BF2B238DF853309AF800302A2B15D0A2
:1059B000544600204FF00A0C079A214611F8013B8B
:1059C000303B092B4ED9B0B1079214E0A0EB08038D
:1059D00009FA03F31343A2460493D2E7039B191D6C
:1059E0001B680391002BBBBF5B4242F0020207938E
:1059F0000793B8BF049223782E2B0CD163782A2BFF
:105A000035D1039B02341A1D1B680392002BB8BFCB
:105A10004FF0FF330593DFF8D8A0032250462178DA
:105A2000FFF788FA40B14023A0EB0A0003FA00F028
:105A3000049B01340343049314F8011B06222D48F0
:105A40008DF82810FFF776FA00283FD02A4B1BBBB1
:105A5000039B073323F0070308330393099B3B445D
:105A6000099367E70C4601200CFB0232A5E70023EF
:105A70004FF00A0C194601340593204610F8012B0B
:105A8000303A092A03D9002BC5D00591C3E7044653
:105A900001230CFB0121F0E703AB00932A463046BB
:105AA000164B04A9FDF794FC0746781CD6D16B6E03
:105AB000D90705D4AB899A0502D4A86DFFF7CCF9B4
:105AC000AB895B063FF512AF099811E703AB009372
:105AD0002A463046094B04A9FDF716FFE4E700BF4C
