:020000040800F2
:104C00000050002011530008695100086F5100083E
:104C1000755100087B510008815100080000000018
:104C200000000000000000000000000087510008A4
:104C300093510008000000009F510008AB5100088C
:104C40005953000859530008595300085953000894
:104C50005953000859530008595300085953000884
:104C60005953000859530008595300085953000874
:104C70005953000859530008595300085953000864
:104C80005953000859530008595300085953000854
:104C90005953000859530008595300085953000844
:104CA0005953000859530008595300085953000834
:104CB0005953000859530008595300085953000824
:104CC0005953000859530008595300085953000814
:104CD0005953000859530008595300085953000804
:104CE00059530008595300085953000800000000A8
:104CF00000000000000000000000000000000000B4
:0C4D000000000000000000005FF808F157
:104D0C0010B5054C237833B9044B13B10448AFF3F9
:104D1C0000800123237010BD7000002000000000F3
:104D2C008871000808B5034B1BB103490348AFF366
:104D3C00008008BD0000000074000020887100088D
:104D4C0080B500AF00F004FB00F018F800F0B8F8E4
:104D5C0000F056F800F08AF8064801F087FD4FF491
:104D6C000051054800F0F6FE4FF47A7000F052FB4B
:104D7C00F2E700BFA07100080010014080B590B0B0
:104D8C0000AF07F1180328220021184601F0F8FCA7
:104D9C003B1D00221A605A609A60DA601A61022385
:104DAC00BB610123BB621023FB6202237B630023E4
:104DBC00BB634FF46013FB6307F11803184600F054
:104DCC00E3FE0346002B01D000F0E4F80F237B60D8
:104DDC000223BB600023FB604FF480633B61002324
:104DEC007B613B1D0221184601F050F90346002B54
:104DFC0001D000F0CFF800BF4037BD4680BD0000A9
:104E0C0080B500AF174B184A1A60164B08225A602F
:104E1C00144B00229A60134B0022DA60114B4FF4B2
:104E2C0040221A610F4B4FF480125A610D4B002235
:104E3C001A760C4B01225A760A4B00229A76094BB1
:104E4C000122DA76074B00221A77064B00225A779A
:104E5C00044800F003FB0346002B01D000F09AF845
:104E6C0000BF80BD8C0000200064004080B500AF06
:104E7C00114B124A1A60104B4FF4E1325A600E4B30
:104E8C0000229A600C4B0022DA600B4B00221A6154
:104E9C00094B0C225A61084B00229A61064B0022E6
:104EAC00DA61054801F08AFA0346002B01D000F0C4
:104EBC0071F800BF80BD00BFB40000200038014075
:104ECC0080B588B000AF07F1100300221A605A6059
:104EDC009A60DA60244B9B69234A43F01003936178
:104EEC00214B9B6903F01003FB60FB681E4B9B6915
:104EFC001D4A43F0200393611B4B9B6903F0200375
:104F0C00BB60BB68184B9B69174A43F00403936161
:104F1C00154B9B6903F004037B607B68124B9B6908
:104F2C00114A43F0080393610F4B9B6903F008038C
:104F3C003B603B6800224FF400510C4800F0F2FD3E
:104F4C004FF400533B6101237B610023BB610223BF
:104F5C00FB6107F110031946044800F05FFC00BF29
:104F6C002037BD4680BD00BF00100240001001403C
:104F7C0080B582B000AF7860391D4FF0FF3301224D
:104F8C00034801F068FA7B6818460837BD4680BDB7
:104F9C00B400002080B400AF72B600BFFEE7000082
:104FAC0080B485B000AF154B9B69144A43F00103E4
:104FBC009361124B9B6903F00103BB60BB680F4B01
:104FCC00DB690E4A43F08053D3610C4BDB6903F071
:104FDC0080537B607B680A4B5B68FB60FB6823F04B
:104FEC00E063FB60FB6843F00073FB60044AFB6802
:104FFC00536000BF1437BD4680BC704700100240A0
:10500C000000014080B58AB000AF786007F114034E
:10501C0000221A605A609A60DA607B681B68254A25
:10502C00934243D1244BDB69234A43F00073D36191
:10503C00214BDB6903F000733B613B691E4B9B69A1
:10504C001D4A43F0080393611B4B9B6903F0080353
:10505C00FB60FB684FF480737B610023BB61002312
:10506C00FB6107F114031946144800F0D7FB4FF409
:10507C0000737B610223BB6103233B6207F11403C2
:10508C0019460E4800F0CAFB0D4B5B687B627B6ACD
:10509C0023F4C0437B627B6A43F0E0637B627B6AF0
:1050AC0043F480437B62064A7B6A536000BF283717
:1050BC00BD4680BD0064004000100240000C014061
:1050CC000000014080B588B000AF786007F1100394
:1050DC0000221A605A609A60DA607B681B681C4A6E
:1050EC00934231D11B4B9B691A4A43F48043936121
:1050FC00184B9B6903F48043FB60FB68154B9B6961
:10510C00144A43F004039361124B9B6903F00403AC
:10511C00BB60BB684FF400733B6102237B610323CC
:10512C00FB6107F1100319460B4800F077FB4FF4B5
:10513C0080633B6100237B610023BB6107F110039B
:10514C001946054800F06AFB00BF2037BD4680BDFC
:10515C0000380140001002400008014080B400AF4C
:10516C00FEE780B400AFFEE780B400AFFEE780B48A
:10517C0000AFFEE780B400AFFEE780B400AF00BF25
:10518C00BD4680BC704780B400AF00BFBD4680BC3C
:10519C00704780B400AF00BFBD4680BC704780B57F
:1051AC0000AF00F01BF900BF80BD80B586B000AF2A
:1051BC00F860B9607A6000237B610AE0AFF300808D
:1051CC000146BB685A1CBA60CAB21A707B690133BB
:1051DC007B617A697B689A42F0DB7B6818461837EA
:1051EC00BD4680BD80B586B000AFF860B9607A600E
:1051FC0000237B6109E0BB685A1CBA601B78184617
:10520C00FFF7B6FE7B6901337B617A697B689A4252
:10521C00F1DB7B6818461837BD4680BD80B483B07F
:10522C0000AF78604FF0FF3318460C37BD4680BC9A
:10523C00704780B483B000AF786039603B684FF43E
:10524C0000525A60002318460C37BD4680BC70478C
:10525C0080B483B000AF7860012318460C37BD468C
:10526C0080BC704780B485B000AFF860B9607A60DC
:10527C00002318461437BD4680BC704780B586B0F5
:10528C0000AF7860144A154BD31A7B617B693B6184
:10529C00134B1B68002B02D1114B124A1A60104B96
:1052AC001A687B6813443A699A4207D201F03EFAB5
:1052BC0003460C221A604FF0FF3309E0084B1B68C1
:1052CC00FB60074B1A687B681344054A1360FB6844
:1052DC0018461837BD4680BD005000200004000061
:1052EC00F80000201001002080B400AF034B044AEA
:1052FC009A6000BFBD4680BC704700BF00ED00E067
:10530C00004C00080C480D490D4A002302E0D4580B
:10531C00C4500433C4188C42F9D30A4A0A4C0023F3
:10532C0001E013600432A242FBD3FFF7DDFF01F072
:10533C0003FAFFF705FD7047000000207000002005
:10534C00507200087000002010010020FEE70000E1
:10535C0080B500AF084B1B68074A43F0100313607D
:10536C00032000F027FA002000F008F8FFF718FEE1
:10537C000023184680BD00BF0020024080B582B0DB
:10538C0000AF7860124B1A68124B1B7819464FF419
:10539C007A73B3FBF1F3B2FBF3F3184600F031FA76
:1053AC000346002B01D001230EE07B680F2B0AD89B
:1053BC00002279684FF0FF3000F007FA064A7B684C
:1053CC001360002300E0012318460837BD4680BD5A
:1053DC0000000020080000200400002080B400AF72
:1053EC00054B1B781A46054B1B681344034A136084
:1053FC0000BFBD4680BC704708000020FC000020A8
:10540C0080B400AF024B1B681846BD4680BC704789
:10541C00FC00002080B584B000AF7860FFF7F0FF8F
:10542C00B8607B68FB60FB68B3F1FF3F05D00A4BAB
:10543C001B781A46FB681344FB6000BFFFF7E0FFC4
:10544C000246BB68D31AFA689A42F7D800BF00BF6D
:10545C001037BD4680BD00BF0800002080B584B069
:10546C0000AF78607B68002B01D10123EDE07B68F5
:10547C0093F82030DBB2002B02D17868FFF7C2FD25
:10548C007B681B681A687B681B6842F001021A6013
:10549C00FFF7B6FFF86012E0FFF7B2FF0246FB68B9
:1054AC00D31A0A2B0BD97B685B6A43F400327B68F6
:1054BC005A627B68052283F820200123C5E07B68B3
:1054CC001B685B6803F00103002BE5D07B681B684D
:1054DC001A687B681B6822F002021A60FFF790FFC3
:1054EC00F86012E0FFF78CFF0246FB68D31A0A2B18
:1054FC000BD97B685B6A43F400327B685A627B6829
:10550C00052283F8202001239FE07B681B685B68E1
:10551C0003F00203002BE5D17B681B7E012B08D125
:10552C007B681B681A687B681B6842F080021A60F3
:10553C0007E07B681B681A687B681B6822F0800296
:10554C001A607B685B7E012B08D17B681B681A682C
:10555C007B681B6842F040021A6007E07B681B689E
:10556C001A687B681B6822F040021A607B689B7E7D
:10557C00012B08D17B681B681A687B681B6842F09A
:10558C0020021A6007E07B681B681A687B681B683E
:10559C0022F020021A607B68DB7E012B08D17B682D
:1055AC001B681A687B681B6822F010021A6007E0FF
:1055BC007B681B681A687B681B6842F010021A60D3
:1055CC007B681B7F012B08D17B681B681A687B6882
:1055DC001B6842F008021A6007E07B681B681A68B7
:1055EC007B681B6822F008021A607B685B7F012BCA
:1055FC0008D17B681B681A687B681B6842F0040240
:10560C001A6007E07B681B681A687B681B6822F0CD
:10561C0004021A607B689A687B68DB681A437B68B3
:10562C001B691A437B685B6942EA03017B685B6810
:10563C005A1E7B681B680A43DA617B6800225A6237
:10564C007B68012283F82020002318461037BD46C2
:10565C0080BD000080B485B000AF78607B6803F03B
:10566C000703FB600C4BDB68BB60BA684FF6FF03AB
:10567C001340BB60FB681A02BB68134343F0BF6363
:10568C0043F40033BB60044ABB68D36000BF1437DB
:10569C00BD4680BC704700BF00ED00E080B400AF99
:1056AC00044BDB681B0A03F007031846BD4680BC9D
:1056BC00704700BF00ED00E080B483B000AF03463C
:1056CC003960FB7197F90730002B0ADB3B68DAB2C3
:1056DC000C4997F907301201D2B20B4483F800231E
:1056EC000AE03B68DAB20849FB7903F00F03043B8C
:1056FC001201D2B20B441A7600BF0C37BD4680BCE7
:10570C00704700BF00E100E000ED00E080B489B01C
:10571C0000AFF860B9607A60FB6803F00703FB61C7
:10572C00FB69C3F10703042B28BF0423BB61FB698E
:10573C000433062B02D9FB69033B00E000237B6199
:10574C004FF0FF32BB6902FA03F3DA43BB681A402D
:10575C007B699A404FF0FF317B6901FA03F3D9431F
:10576C007B680B40134318462437BD4680BC7047FA
:10577C0080B582B000AF78607B68013BB3F1807F6D
:10578C0001D301230FE00A4A7B68013B53600F21D0
:10579C004FF0FF30FFF790FF054B00229A60044B4F
:1057AC0007221A60002318460837BD4680BD00BF8B
:1057BC0010E000E080B582B000AF78607868FFF749
:1057CC0049FF00BF0837BD4680BD80B586B000AF2D
:1057DC000346B9607A60FB7300237B61FFF75EFFC1
:1057EC0078617A68B9687869FFF790FF024697F993
:1057FC000F3011461846FFF75FFF00BF1837BD4644
:10580C0080BD80B582B000AF78607868FFF7B0FFDC
:10581C00034618460837BD4680BD000080B48BB0E7
:10582C0000AF7860396000237B6200233B6269E142
:10583C0001227B6A02FA03F3FB613B681B68FA697D
:10584C001340BB61BA69FB699A4240F058813B68CE
:10585C005B689A4A93425ED0984A934275D8984AAC
:10586C00934258D0964A93426FD8964A934252D05C
:10587C00944A934269D8944A93424CD0924A9342A8
:10588C0063D8924A934246D0904A93425DD8122BE9
:10589C002AD8122B59D801A252F823F02359000808
:1058AC00FD5800080F5900085159000857590008B5
:1058BC0057590008575900085759000857590008FC
:1058CC0057590008575900085759000857590008EC
:1058DC0057590008575900085759000857590008DC
:1058EC000559000819590008794A934213D02CE045
:1058FC003B68DB683B6229E03B68DB6804333B6256
:10590C0024E03B68DB6808333B621FE03B68DB68E4
:10591C000C333B621AE03B689B68002B02D10423DA
:10592C003B6213E03B689B68012B05D108233B626B
:10593C007B68FA691A6109E008233B627B68FA69A3
:10594C005A6103E000233B6200E000BFBB69FF2B00
:10595C0001D87B6801E07B6804337B61BB69FF2B5A
:10596C0002D87B6A9B0002E07B6A083B9B003B6190
:10597C007B691A680F213B6901FA03F3DB431A4078
:10598C00396A3B6901FA03F31A437B691A603B6875
:10599C005B6803F08053002B00F0B1804D4B9B698A
:1059AC004C4A43F0010393614A4B9B6903F001039A
:1059BC00BB60BB68484A7B6A9B08023352F82330B1
:1059CC00FB607B6A03F003039B000F2202FA03F3D4
:1059DC00DB43FA681340FB607B68404A934213D068
:1059EC007B683F4A93420DD07B683E4A934207D076
:1059FC007B683D4A934201D1032306E0042304E073
:105A0C00022302E0012300E000237A6A02F0030281
:105A1C0092009340FA681343FB602F497B6A9B0802
:105A2C000233FA6841F823203B685B6803F4803347
:105A3C00002B06D02D4B1A682C49BB6913430B6005
:105A4C0006E02A4B1A68BB69DB43284913400B60FC
:105A5C003B685B6803F40033002B06D0234B5A6879
:105A6C002249BB6913434B6006E0204B5A68BB6963
:105A7C00DB431E4913404B603B685B6803F48013A7
:105A8C00002B06D0194B9A681849BB6913438B60DD
:105A9C0006E0164B9A68BB69DB43144913408B60D4
:105AAC003B685B6803F40013002B21D00F4BDA68C2
:105ABC000E49BB691343CB6021E000BF00003210DC
:105ACC000000311000002210000021100000121004
:105ADC0000001110001002400000014000080140BD
:105AEC00000C014000100140001401400004014072
:105AFC000B4BDA68BB69DB4309491340CB607B6A0B
:105B0C0001337B623B681A687B6A22FA03F3002B31
:105B1C007FF48EAE00BF00BF2C37BD4680BC7047F3
:105B2C000004014080B483B000AF78600B467B80EA
:105B3C0013467B707B78002B03D07A887B681A61C4
:105B4C0003E07B881A047B681A6100BF0C37BD46E2
:105B5C0080BC704780B485B000AF78600B467B800A
:105B6C007B68DB68FB607A88FB6813401A04FB686F
:105B7C00D9437B880B401A437B681A6100BF1437EA
:105B8C00BD4680BC7047000080B586B000AF786021
:105B9C007B68002B01D1012372E27B681B6803F048
:105BAC000103002B00F08780924B5B6803F00C0321
:105BBC00042B0CD08F4B5B6803F00C03082B12D119
:105BCC008C4B5B6803F48033B3F5803F0BD1894B6E
:105BDC001B6803F40033002B6CD07B685B68002BD4
:105BEC0068D101234CE27B685B68B3F5803F06D13A
:105BFC00804B1B687F4A43F4803313602EE07B6834
:105C0C005B68002B0CD17B4B1B687A4A23F48033E6
:105C1C001360784B1B68774A23F4802313601DE0D4
:105C2C007B685B68B3F5A02F0CD1724B1B68714A73
:105C3C0043F4802313606F4B1B686E4A43F480332C
:105C4C0013600BE06B4B1B686A4A23F480331360C0
:105C5C00684B1B68674A23F4802313607B685B687E
:105C6C00002B13D0FFF7CCFB386108E0FFF7C8FB23
:105C7C0002463B69D31A642B01D9032300E25D4B26
:105C8C001B6803F40033002BF0D014E0FFF7B8FBD3
:105C9C00386108E0FFF7B4FB02463B69D31A642B6A
:105CAC0001D90323ECE1534B1B6803F40033002BA5
:105CBC00F0D100E000BF7B681B6803F00203002BEF
:105CCC0063D04C4B5B6803F00C03002B0BD0494B9F
:105CDC005B6803F00C03082B1CD1464B5B6803F488
:105CEC008033002B16D1434B1B6803F00203002BAF
:105CFC0005D07B681B69012B01D00123C0E13D4B12
:105D0C001B6823F0F8027B685B69DB00394913439D
:105D1C000B603AE07B681B69002B20D0364B0122CC
:105D2C001A60FFF76DFB386108E0FFF769FB02466C
:105D3C003B69D31A022B01D90323A1E12D4B1B681C
:105D4C0003F00203002BF0D02A4B1B6823F0F8025F
:105D5C007B685B69DB00274913430B6015E0264B1E
:105D6C0000221A60FFF74CFB386108E0FFF748FB94
:105D7C0002463B69D31A022B01D9032380E11D4B48
:105D8C001B6803F00203002BF0D17B681B6803F047
:105D9C000803002B3AD07B689B69002B19D0174B5A
:105DAC0001221A60FFF72CFB386108E0FFF728FB93
:105DBC0002463B69D31A022B01D9032360E10D4B38
:105DCC005B6A03F00203002BF0D0012000F0D8FA3C
:105DDC001CE00A4B00221A60FFF712FB38610FE03F
:105DEC00FFF70EFB02463B69D31A022B08D903239B
:105DFC0046E100BF001002400000424280044242D3
:105E0C00924B5B6A03F00203002BE9D17B681B68A1
:105E1C0003F00403002B00F0A6800023FB758B4BD2
:105E2C00DB6903F08053002B0DD1884BDB69874A6B
:105E3C0043F08053D361854BDB6903F08053BB6027
:105E4C00BB680123FB75824B1B6803F48073002B2A
:105E5C0018D17F4B1B687E4A43F480731360FFF7A5
:105E6C00CFFA386108E0FFF7CBFA02463B69D31A48
:105E7C00642B01D9032303E1754B1B6803F4807376
:105E8C00002BF0D07B68DB68012B06D16F4B1B6AB3
:105E9C006E4A43F0010313622DE07B68DB68002B34
:105EAC000CD16A4B1B6A694A23F001031362674BDE
:105EBC001B6A664A23F0040313621CE07B68DB68F0
:105ECC00052B0CD1614B1B6A604A43F0040313622F
:105EDC005E4B1B6A5D4A43F0010313620BE05B4BA4
:105EEC001B6A5A4A23F001031362584B1B6A574A28
:105EFC0023F0040313627B68DB68002B15D0FFF7DB
:105F0C007FFA38610AE0FFF77BFA02463B69D31A45
:105F1C0041F28832934201D90323B1E04B4B1B6A07
:105F2C0003F00203002BEED014E0FFF769FA38619E
:105F3C000AE0FFF765FA02463B69D31A41F2883250
:105F4C00934201D903239BE0404B1B6A03F00203ED
:105F5C00002BEED1FB7D012B05D13C4BDB693B4A81
:105F6C0023F08053D3617B68DB69002B00F08780C2
:105F7C00364B5B6803F00C03082B61D07B68DB6944
:105F8C00022B46D1334B00221A60FFF739FA3861E5
:105F9C0008E0FFF735FA02463B69D31A022B01D908
:105FAC0003236DE0294B1B6803F00073002BF0D129
:105FBC007B681B6AB3F5803F08D1244B5B6823F4E4
:105FCC0000327B689B68214913434B601F4B5B6815
:105FDC0023F474127B68196A7B685B6A0B431B4958
:105FEC0013434B601B4B01221A60FFF709FA38610F
:105FFC0008E0FFF705FA02463B69D31A022B01D9D8
:10600C0003233DE0114B1B6803F00073002BF0D011
:10601C0035E0104B00221A60FFF7F2F9386108E006
:10602C00FFF7EEF902463B69D31A022B01D9032381
:10603C0026E0064B1B6803F00073002BF0D11EE02A
:10604C007B68DB69012B07D1012319E000100240AA
:10605C0000700040600042420B4B5B68FB60FB68C9
:10606C0003F480327B681B6A9A4206D1FB6803F406
:10607C0070127B685B6A9A4201D0012300E0002316
:10608C0018461837BD4680BD0010024080B584B05C
:10609C0000AF786039607B68002B01D10123D0E020
:1060AC006A4B1B6803F007033A689A4210D9674B96
:1060BC001B6823F0070265493B6813430B60634B75
:1060CC001B6803F007033A689A4201D00123B8E039
:1060DC007B681B6803F00203002B20D07B681B68D5
:1060EC0003F00403002B05D0594B5B68584A43F46A
:1060FC00E06353607B681B6803F00803002B05D03A
:10610C00534B5B68524A43F460535360504B5B688B
:10611C0023F0F0027B689B684D4913434B607B680E
:10612C001B6803F00103002B40D07B685B68012BDC
:10613C0007D1474B1B6803F40033002B15D1012307
:10614C007FE07B685B68022B07D1414B1B6803F037
:10615C000073002B09D1012373E03D4B1B6803F046
:10616C000203002B01D101236BE0394B5B6823F058
:10617C0003027B685B68364913434B60FFF740F9B9
:10618C00F8600AE0FFF73CF90246FB68D31A41F2CB
:10619C008832934201D9032353E02D4B5B6803F003
:1061AC000C027B685B689B009A42EBD1274B1B6807
:1061BC0003F007033A689A4210D2244B1B6823F071
:1061CC00070222493B6813430B60204B1B6803F00A
:1061DC0007033A689A4201D0012332E07B681B68BE
:1061EC0003F00403002B08D0194B5B6823F4E06226
:1061FC007B68DB68164913434B607B681B6803F0B4
:10620C000803002B09D0124B5B6823F460527B68A7
:10621C001B69DB000E4913434B6000F021F802466A
:10622C000B4B5B681B0903F00F030A49CB5C22FA8A
:10623C0003F3094A1360094B1B681846FFF79EF8D5
:10624C00002318461037BD4680BD00BF0020024019
:10625C0000100240CC710008000000200400002057
:10626C0090B48AB000AF294B3C1D0FCB84E80F00D3
:10627C0040F201233B800023FB610023BB61002320
:10628C007B6200237B6100233B62214B5B68FB61DB
:10629C00FB6903F00C03042B02D0082B03D02BE07A
:1062AC001C4B3B622BE0FB699B0C03F00F03283368
:1062BC003B4413F8243C7B61FB6903F48033002BD3
:1062CC0012D0134B5B685B0C03F0010328333B4487
:1062DC0013F8283CBB617B690E4A03FB02F2BB69D5
:1062EC00B2FBF3F37B6204E07B690B4A02FB03F322
:1062FC007B627B6A3B6202E0064B3B6200BF3B6AFF
:10630C0018462837BD4690BC704700BFBC710008CA
:10631C000010024000127A0000093D0080B400AF6A
:10632C00024B1B681846BD4680BC7047000000201D
:10633C0080B500AFFFF7F2FF0246054B5B681B0A06
:10634C0003F007030349CB5C22FA03F3184680BD24
:10635C0000100240DC71000880B500AFFFF7DEFFD3
:10636C000246054B5B68DB0A03F007030349CB5C71
:10637C0022FA03F3184680BD00100240DC710008BD
:10638C0080B485B000AF78600A4B1B680A4AA2FB48
:10639C0003235B0A7A6802FB03F3FB6000BFFB6814
:1063AC005A1EFA60002BF9D100BF00BF1437BD464E
:1063BC0080BC704700000020D34D621080B582B0C5
:1063CC0000AF78607B68002B01D101233FE07B6834
:1063DC0093F83D30DBB2002B06D17B68002283F8AA
:1063EC003C207868FEF76EFE7B68242283F83D2003
:1063FC007B681B68DA687B681B6822F40052DA60E1
:10640C00786800F005F97B681B681A697B681B6863
:10641C0022F490421A617B681B685A697B681B687E
:10642C0022F02A025A617B681B68DA687B681B6859
:10643C0042F40052DA607B6800221A647B682022E6
:10644C0083F83D207B68202283F83E2000231846E9
:10645C000837BD4680BD80B58AB002AFF860B96020
:10646C003B601346FB8000237B61FB6893F83D3057
:10647C00DBB2202B7CD1BB68002B02D0FB88002B1D
:10648C0001D1012375E0FB6893F83C30012B01D15D
:10649C0002236EE0FB68012283F83C20FB6800229B
:1064AC001A64FB68212283F83D20FEF7A9FF78616E
:1064BC00FB68FA889A84FB68FA88DA84FB689B6824
:1064CC00B3F5805F08D1FB681B69002B04D1002356
:1064DC00FB61BB68BB6103E0BB68FB610023BB6174
:1064EC00FB68002283F83C202AE03B6800937B6920
:1064FC0000228021F86800F040F80346002B01D000
:10650C00032336E0FB69002B0BD1BB691B881A46B1
:10651C00FB681B68C2F308025A60BB690233BB619B
:10652C0007E0FB691A78FB681B685A60FB6901334A
:10653C00FB61FB68DB8C9BB2013B9AB2FB68DA8493
:10654C00FB68DB8C9BB2002BCFD13B6800937B6943
:10655C0000224021F86800F010F80346002B01D00F
:10656C00032306E0FB68202283F83D20002300E093
:10657C00022318462037BD4680BD80B584B000AFDD
:10658C00F860B9603B601346FB712CE0BB69B3F15A
:10659C00FF3F28D0BB69002B07D0FEF731FF024626
:1065AC003B68D31ABA699A421DD2FB681B68DA6839
:1065BC00FB681B6822F4D072DA60FB681B685A69AE
:1065CC00FB681B6822F001025A61FB68202283F8E9
:1065DC003D20FB68202283F83E20FB68002283F8D4
:1065EC003C2003230FE0FB681B681A68BB68134050
:1065FC00BA689A420CBF01230023DBB21A46FB791E
:10660C009A42C3D0002318461037BD4680BD000007
:10661C0080B584B000AF78607B681B681B6923F47D
:10662C0040517B68DA687B681B680A431A617B6897
:10663C009A687B681B691A437B685B691343BB6070
:10664C007B681B68DB6823F4B05323F00C037A6877
:10665C001268B9680B43D3607B681B685B6923F4D1
:10666C0040717B689A697B681B680A435A617B6836
:10667C001B682C4A934203D1FFF76EFEF86002E0D0
:10668C00FFF756FEF860FA6813469B0013449A0015
:10669C001A447B685B689B00B2FBF3F3224AA2FBB3
:1066AC0003235B091901FA6813469B0013449A00F3
:1066BC001A447B685B689B00B2FBF3F21A4BA3FB9A
:1066CC0002035B09642000FB03F3D31A1B01323372
:1066DC00154AA2FB03235B0903F0F0031944FA6883
:1066EC0013469B0013449A001A447B685B689B001A
:1066FC00B2FBF3F20C4BA3FB02035B09642000FB1F
:10670C0003F3D31A1B013233074AA2FB03235B09A1
:10671C0003F00F027B681B680A449A6000BF1037B5
:10672C00BD4680BD003801401F85EB51014B1868F8
:10673C00704700BF0C00002070B500260C4D0D4CAE
:10674C00641BA410A64209D100F018FD00260A4DC6
:10675C000A4C641BA410A64205D170BD55F8043B2D
:10676C0098470136EEE755F8043B98470136F2E7B7
:10677C004872000848720008487200084C72000801
:10678C0003460244934200D1704703F8011BF9E71A
:10679C0070B50E46054618B183690BB900F044FA82
:1067AC00AB69AC6813B9284600F03EFA2C4B9C42FE
:1067BC0020D16C68636EDB0705D4A389980502D4DD
:1067CC00A06D00F0CFFAA38919071DD52369DBB1A1
:1067DC00013EA36816F8011F013BA36039BB002BD7
:1067EC0038DA22460A21284600F048F8013011D048
:1067FC000A2511E01B4B9C4201D1AC68DAE71A4B1D
:10680C009C4208BFEC68D5E72146284600F088F882
:10681C000028DDD04FF0FF35636EDA0705D4A3896D
:10682C009B0502D4A06D00F09EFA284670BD002B8B
:10683C0004DAA2699A4206DC0A2904D023685A1C9D
:10684C0022601970C5E72246284600F017F801307F
:10685C00BFD1DFE70A2523685A1C22601D70DBE7D5
:10686C000872000828720008E8710008024B014603
:10687C001868FFF78DBF00BF0C000020F8B50E465E
:10688C001446054618B183690BB900F0CDF9214BBC
:10689C009C422BD16C68A369A360A3891A072FD5DE
:1068AC0023696BB323692068F6B2C01A6369374653
:1068BC00834204DC2146284600F022F930BBA36851
:1068CC000130013BA36023685A1C22601E7063696F
:1068DC00834204D0A389DB0706D50A2E04D12146B6
:1068EC00284600F00DF988B93846F8BD0A4B9C4291
:1068FC0001D1AC68CFE7094B9C4208BFEC68CAE7F2
:10690C002146284600F00CF80028CBD04FF0FF377A
:10691C00EAE700BF0872000828720008E871000856
:10692C00324B70B51D6806460C4625B1AB6913B9E0
:10693C00284600F079F92E4B9C420FD16C68A38944
:10694C00B4F90C2019072CD4DD0611D409233360BB
:10695C0042F040034FF0FF30A3813EE0254B9C42B8
:10696C0001D1AC68EBE7244B9C4208BFEC68E6E72E
:10697C00580712D5616B41B104F14403994202D01E
:10698C00304600F057FA00236363A38923F02403F5
:10699C00A3810023636023692360A38943F0080368
:1069AC00A38123694BB9A38903F42073B3F5007F4A
:1069BC0003D02146304600F0FDF9A089B4F90C2033
:1069CC0010F001030AD00023A36063695B42A3614A
:1069DC00236943B910F08000BAD170BD810758BF4C
:1069EC006369A360F4E70020F7E700BF0C00002008
:1069FC000872000828720008E87100088A89F8B546
:106A0C00054610070C4657D44B68002B04DC0B6C66
:106A1C00002B01DC0020F8BDE66A002EFAD0002322
:106A2C0012F480522F682B6032D0606DA3895A0704
:106A3C0005D56368C01A636B0BB1236CC01A0023B5
:106A4C000246E66A2846216AB047431CA38906D150
:106A5C0029681D292CD8294ACA40D60728D50022D6
:106A6C0062602269D904226004D5421C01D12B68D2
:106A7C0003B96065616B2F600029CBD004F144032E
:106A8C00994202D0284600F0D5F900206063C2E795
:106A9C00216A01232846B047411CC7D12B68002B23
:106AAC00C4D01D2B01D0162B01D12F60B2E7A389C6
:106ABC0043F04003A381AEE70F69002FAAD09307E0
:106ACC0018BF00230E6808BF4B69F61B0F608B6064
:106ADC00002E9FDD33463A462846216AD4F828C05A
:106AEC00E047002806DCA3894FF0FF3043F0400359
:106AFC00A38190E70744361AEAE700BF0100402063
:106B0C0038B50B6905460C4613B90025284638BD27
:106B1C0018B183690BB900F087F8144B9C421BD158
:106B2C006C68B4F90C30002BEFD0626ED00704D433
:106B3C00990502D4A06D00F015F928462146FFF7FF
:106B4C005DFF636E0546DA07E0D4A3899B05DDD4AF
:106B5C00A06D00F008F9D9E7054B9C4201D1AC6857
:106B6C00DFE7044B9C4208BFEC68DAE708720008C8
:106B7C0028720008E8710008002310B50446C0E92B
:106B8C000033C0E90433836081814366C281836131
:106B9C00194608225C30FFF7F3FD054B2462636253
:106BAC00044BA362044BE362044B236310BD00BF90
:106BBC00197000083B70000873700008977000088B
:106BCC00014900F0AFB800BF0D6B0008682270B52A
:106BDC004D1E55430E4605F1740100F093F9044621
:106BEC0040B10021C0E900160C30A06005F168022C
:106BFC00FFF7C6FD204670BD014800F0B3B800BFDA
:106C0C0001010020014800F0AEB800BF01010020D6
:106C1C00014800F0A7B800BF02010020014800F0B5
:106C2C00A2B800BF0201002010B50446FFF7F0FF28
:106C3C00A3691BB1BDE81040FFF7F0BFC4E91233E4
:106C4C002365134B134A1B68A262A34208BF01239E
:106C5C00204608BFA36100F01FF86060204600F0DA
:106C6C001BF8A060204600F017F800220421E06019
:106C7C006068FFF781FF01220921A068FFF77CFF04
:106C8C0002221221E068FFF777FF0123A361D1E70D
:106C9C00E4710008CD6B0008F8B50746FFF7ACFFB0
:106CAC001E4B1E68B36913B93046FFF7BDFF48365B
:106CBC00D6E90134013B03D533680BB33668F7E7EB
:106CCC00B4F90C50D5B9164B04F15800E360656665
:106CDC0000F047F8FFF796FF08222946C4E9015552
:106CEC00C4E904552560A56104F15C00FFF748FD7B
:106CFC00C4E90D55C4E912552046F8BD6834D9E7EE
:106D0C0004213846FFF762FF044630600028D5D1D5
:106D1C00FFF778FF0C233B60EEE700BFE47100083F
:106D2C000100FFFF2DE9F84306468846002700F1D5
:106D3C004804D4E90195B9F1010905D52468002C62
:106D4C00F7D13846BDE8F883AB89012B07D9B5F9E3
:106D5C000E30013303D029463046C047074368350F
:106D6C00E9E770477047704770B50E46B1F90E10E1
:106D7C00144600291D4696B008DA0022B6F90C30EC
:106D8C002A601A0610D44FF480630EE06A4600F0B5
:106D9C00A3F90028F1DB019A02F47042A2F500532A
:106DAC005A425A412A60EEE740230020236016B075
:106DBC0070BD00008B8973B59D0706460C4607D540
:106DCC0004F14703236023610123636102B070BDAA
:106DDC006A4601ABFFF7C8FF00990546304600F044
:106DEC0091F848B9B4F90C309A05EFD423F00303A9
:106DFC0043F00203A381E3E70D4BB362A389206048
:106E0C0043F08003A381009B20616361019B5BB114
:106E1C003046B4F90E1000F071F928B1A38923F0B3
:106E2C00030343F00103A381A0890543A581CDE7AA
:106E3C00CD6B000838B50546002940D051F8043C0C
:106E4C000C1F002BB8BFE41800F07AF91C4A136829
:106E5C0033B9636014602846BDE8384000F076B959
:106E6C00A34208D9206821188B4201BF19685B68BE
:106E7C0009182160EDE71A465B680BB1A342FAD9F9
:106E8C0011685018A0420BD120680144501883425D
:106E9C001160E0D118685B68014411605360DAE757
:106EAC0002D90C232B60D6E7206821188B4201BF36
:106EBC0019685B680918216063605460CBE738BDC2
:106ECC000401002070B50E4E0C463168054611B910
:106EDC0000F08CF830602146284600F087F8431CFF
:106EEC000AD0C41C24F00304A04207D0211A28465F
:106EFC0000F07CF8013001D14FF0FF34204670BD1A
:106F0C00080100202DE9F041CD1C25F003050835C2
:106F1C000C2D38BF0C25002D074601DBA94205D9E5
:106F2C000C2300263B603046BDE8F0812E4E00F06D
:106F3C0007F933681C4634BB29463846FFF7C2FFB5
:106F4C00431C04464DD134682646002E40D123689C
:106F5C003146384604EB030800F048F880453AD136
:106F6C00216803356D1A25F0030508350C2D38BF43
:106F7C000C2538462946FFF7A5FF01302BD0236896
:106F8C002B4423600EE02268521B1ED40B2A16D908
:106F9C006119A342256018BF5960636808BF31604E
:106FAC0062514B60384604F10B0600F0CFF826F026
:106FBC000706231DF21AB6D09B1BA350B3E76268D9
:106FCC00A3420CBF32605A60ECE723466468B2E718
:106FDC0034467668B9E70C2338463B6000F0B6F8C7
:106FEC00A1E72560DEE700BF0401002038B50023CF
:106FFC00054D044608462B60FEF740F9431C02D1B0
:10700C002B6803B1236038BD0C01002010B50C4671
:10701C00B1F90E1000F0A0F80028ABBF636DA38986
:10702C001B1823F48053ACBF6365A38110BD2DE9FD
:10703C00F0411F468B890546DB050C46164605D5E7
:10704C0002230022B1F90E1000F068F8A389324631
:10705C0023F48053A38128463B46B4F90E10BDE8B7
:10706C00F04100F017B810B50C46B1F90E1000F055
:10707C0055F8431CA38915BF606523F4805343F472
:10708C008053A38118BFA38110BDB1F90E1000F07D
:10709C0013B8000038B50446084611460022054DC9
:1070AC002A601A46FEF79EF8431C02D12B6803B1E6
:1070BC00236038BD0C01002038B50023054D044673
:1070CC0008462B60FEF7AAF8431C02D12B6803B1CB
:1070DC00236038BD0C01002038B50023064D044652
:1070EC00084611462B60FEF7A4F8431C02D12B680E
:1070FC0003B1236038BD00BF0C01002038B500235C
:10710C00054D044608462B60FEF7A2F8431C02D13D
:10711C002B6803B1236038BD0C01002038B5044640
:10712C00084611460022054D2A601A46FEF79AF8C9
:10713C00431C02D12B6803B1236038BD0C01002025
:10714C000148FFF70FBE00BF000100200148FFF708
:10715C000ABE00BF0001002038B50446084611469F
:10716C000022054D2A601A46FEF71FF8431C02D177
:10717C002B6803B1236038BD0C010020F8B500BFAB
:10718C00F8BC08BC9E467047F8B500BFF8BC08BCFC
:04719C009E46704754
:1071A00046726F6D204170706C69636174696F6EB7
:1071B0002076657273696F6E5F310D0002030405FE
:1071C000060708090A0B0C0D0E0F10100000000036
:1071D0000000000001020304060708090000000087
:1071E0000102030410000020000000000000000065
:1071F000000000000000000000000000000000008F
:10720000000000000000000000000000000000007E
:10721000000000000000000000000000000000006E
:10722000000000000000000000000000000000005E
:10723000000000000000000000000000000000004E
:08724000000000000000000046
:04724800314D0008BC
:04724C000D4D0008DC
:107250000024F400100000000100000010000020D5
:10726000000000000872000828720008E871000899
:10727000000000000000000000000000000000000E
:1072800000000000000000000000000000000000FE
:1072900000000000000000000000000000000000EE
:1072A00000000000000000000000000000000000DE
:1072B00000000000000000000000000000000000CE
:04000005080053118B
:00000001FF
