:020000040800F2
:1000000000500020010700084905000859050008B4
:1000100069050008790500087F0500080000000058
:10002000000000000000000000000000850500083E
:1000300091050008000000009D050008A9050008C2
:100040004907000849070008490700084907000850
:100050004907000849070008490700084907000840
:100060004907000849070008490700084907000830
:100070004907000849070008490700084907000820
:100080004907000849070008490700084907000810
:100090004907000849070008490700084907000800
:1000A00049070008490700084907000849070008F0
:1000B00049070008490700084907000849070008E0
:1000C00049070008490700084907000849070008D0
:1000D00049070008490700084907000849070008C0
:1000E0004907000849070008490700080000000008
:1000F0000000000000000000000000000000000000
:0C01000000000000000000005FF808F1A3
:10010C0010B5054C237833B9044B13B10448AFF345
:10011C0000800123237010BD70000020000000003F
:10012C00A028000808B5034B1BB103490348AFF3E3
:10013C00008008BD0000000074000020A02800080A
:10014C0080B483B000AF7860084B1B6800225A6201
:10015C0000BF064B1B685B6A7A689A42F9D800BFED
:10016C0000BF0C37BD4680BC704700BF8C00002020
:10017C0080B500AF00F0E4FA00F01CF800F0DAF8FB
:10018C0000F0AEF800F05CF8074801F03FFA0748C1
:10019C0001F0F8FE4FF40051054800F0B3FD4FF4A8
:1001AC007A70FFF7CDFFF2E78C000020B82800082A
:1001BC000010014080B590B000AF07F11803282261
:1001CC000021184601F068FE3B1D00221A605A609F
:1001DC009A60DA601A610123BB614FF48033FB61D2
:1001EC0000233B620123BB6202237B634FF4803309
:1001FC00BB634FF4E013FB6307F11803184600F0E0
:10020C009BFD0346002B01D000F0F2F80F237B601E
:10021C000223BB600023FB604FF480633B6100232F
:10022C007B613B1D0221184601F008F80346002BA8
:10023C0001D000F0DDF800BF4037BD4680BD0000A6
:10024C0080B586B000AF07F1080300221A605A602F
:10025C009A60DA603B4600221A605A601E4B1F4AB5
:10026C001A601D4B47225A601B4B00229A601A4B96
:10027C004FF47A72DA60184B00221A61164B002286
:10028C005A61154B00229A61134801F06FF903462D
:10029C00002B01D000F0ACF84FF48053BB6007F199
:1002AC00080319460C4801F0FBF90346002B01D05A
:1002BC0000F09EF800233B6000237B603B46194610
:1002CC00054801F0A9FB0346002B01D000F090F883
:1002DC0000BF1837BD4680BD8C000020002C0140AB
:1002EC0080B500AF114B124A1A60104B4FF4E1323B
:1002FC005A600E4B00229A600C4B0022DA600B4BBA
:10030C0000221A61094B0C225A61084B00229A6197
:10031C00064B0022DA61054801F0DCFB0346002B9A
:10032C0001D000F065F800BF80BD00BFD4000020F4
:10033C000038014080B588B000AF07F110030022EF
:10034C001A605A609A60DA601E4B9B691D4A43F032
:10035C00100393611B4B9B6903F01003FB60FB685C
:10036C00184B9B69174A43F020039361154B9B690B
:10037C0003F02003BB60BB68124B9B69114A43F02E
:10038C00040393610F4B9B6903F004037B607B6850
:10039C0000224FF400510C4800F09CFC4FF4005329
:1003AC003B6101237B610023BB610223FB6107F1ED
:1003BC0010031946044800F009FB00BF2037BD4666
:1003CC0080BD00BF001002400010014080B582B01B
:1003DC0000AF7860391D4FF0FF330122034801F064
:1003EC00C6FB7B6818460837BD4680BDD40000208C
:1003FC0080B500AF024801F0C5FD72B600BFFEE744
:10040C00D028000880B485B000AF154B9B69144A06
:10041C0043F001039361124B9B6903F00103BB6032
:10042C00BB680F4BDB690E4A43F08053D3610C4B16
:10043C00DB6903F080537B607B680A4B5B68FB6075
:10044C00FB6823F0E063FB60FB6843F00073FB6028
:10045C00044AFB68536000BF1437BD4680BC70472C
:10046C00001002400000014080B485B000AF7860FD
:10047C007B681B68094A93420BD1094B9B69084A5C
:10048C0043F400639361064B9B6903F40063FB60C8
:10049C00FB6800BF1437BD4680BC7047002C014080
:1004AC000010024080B588B000AF786007F11003EF
:1004BC0000221A605A609A60DA607B681B681C4ADA
:1004CC00934231D11B4B9B691A4A43F4804393618D
:1004DC00184B9B6903F48043FB60FB68154B9B69CD
:1004EC00144A43F004039361124B9B6903F0040319
:1004FC00BB60BB684FF400733B6102237B61032339
:10050C00FB6107F1100319460B4800F05FFA4FF43A
:10051C0080633B6100237B610023BB6107F1100307
:10052C001946054800F052FA00BF2037BD4680BD81
:10053C0000380140001002400008014080B500AFB7
:10054C00014801F01FFDFEE7E828000880B500AF68
:10055C00014801F017FDFEE7FC28000880B500AF4C
:10056C00014801F00FFDFEE71029000880B400AF30
:10057C00FEE780B400AFFEE780B400AF00BFBD461D
:10058C0080BC704780B400AF00BFBD4680BC7047D4
:10059C0080B400AF00BFBD4680BC704780B500AFD3
:1005AC0000F014F900BF80BD80B586B000AFF860D4
:1005BC00B9607A6000237B610AE0AFF300800146EA
:1005CC00BB685A1CBA60CAB21A707B6901337B6172
:1005DC007A697B689A42F0DB7B6818461837BD460F
:1005EC0080BD80B586B000AFF860B9607A6000233A
:1005FC007B6109E0BB685A1CBA601B781846FFF790
:10060C00E5FE7B6901337B617A697B689A42F1DB99
:10061C007B6818461837BD4680BD80B483B000AFE8
:10062C0078604FF0FF3318460C37BD4680BC7047DE
:10063C0080B483B000AF786039603B684FF40052EF
:10064C005A60002318460C37BD4680BC704780B4F6
:10065C0083B000AF7860012318460C37BD4680BCD0
:10066C00704780B485B000AFF860B9607A60002341
:10067C0018461437BD4680BC7047000080B586B064
:10068C0000AF7860144A154BD31A7B617B693B61D0
:10069C00134B1B68002B02D1114B124A1A60104BE2
:1006AC001A687B6813443A699A4207D201F0CAFB74
:1006BC0003460C221A604FF0FF3309E0084B1B680D
:1006CC00FB60074B1A687B681344054A1360FB6890
:1006DC0018461837BD4680BD0050002000040000AD
:1006EC00180100203001002080B400AF00BFBD46CF
:1006FC0080BC70470C480D490D4A002302E0D458C9
:10070C00C4500433C4188C42F9D30A4A0A4C00234F
:10071C0001E013600432A242FBD3FFF7E5FF01F0C6
:10072C0097FBFFF725FD70470000002070000020AC
:10073C00B82900087000002030010020FEE70000FE
:10074C0080B500AF084B1B68074A43F010031360D9
:10075C00032000F007F9002000F008F8FFF752FE24
:10076C000023184680BD00BF0020024080B582B037
:10077C0000AF7860124B1A68124B1B7819464FF475
:10078C007A73B3FBF1F3B2FBF3F3184600F011F9F3
:10079C000346002B01D001230EE07B680F2B0AD8F7
:1007AC00002279684FF0FF3000F0E7F8064A7B68CA
:1007BC001360002300E0012318460837BD4680BDB6
:1007CC0000000020080000200400002080B400AFCE
:1007DC00054B1B781A46054B1B681344034A1360E0
:1007EC0000BFBD4680BC7047080000201C010020E3
:1007FC0080B400AF024B1B681846BD4680BC7047E6
:10080C001C01002080B485B000AF78607B6803F0D9
:10081C000703FB600C4BDB68BB60BA684FF6FF0349
:10082C001340BB60FB681A02BB68134343F0BF6301
:10083C0043F40033BB60044ABB68D36000BF143779
:10084C00BD4680BC704700BF00ED00E080B400AF37
:10085C00044BDB681B0A03F007031846BD4680BC3B
:10086C00704700BF00ED00E080B483B000AF0346DA
:10087C003960FB7197F90730002B0ADB3B68DAB261
:10088C000C4997F907301201D2B20B4483F80023BC
:10089C000AE03B68DAB20849FB7903F00F03043B2A
:1008AC001201D2B20B441A7600BF0C37BD4680BC85
:1008BC00704700BF00E100E000ED00E080B489B0BB
:1008CC0000AFF860B9607A60FB6803F00703FB6166
:1008DC00FB69C3F10703042B28BF0423BB61FB692D
:1008EC000433062B02D9FB69033B00E000237B6138
:1008FC004FF0FF32BB6902FA03F3DA43BB681A40CC
:10090C007B699A404FF0FF317B6901FA03F3D943BD
:10091C007B680B40134318462437BD4680BC704798
:10092C0080B582B000AF78607B68013BB3F1807F0B
:10093C0001D301230FE00A4A7B68013B53600F216E
:10094C004FF0FF30FFF790FF054B00229A60044BED
:10095C0007221A60002318460837BD4680BD00BF29
:10096C0010E000E080B582B000AF78607868FFF7E7
:10097C0049FF00BF0837BD4680BD80B586B000AFCB
:10098C000346B9607A60FB7300237B61FFF75EFF5F
:10099C0078617A68B9687869FFF790FF024697F931
:1009AC000F3011461846FFF75FFF00BF1837BD46E2
:1009BC0080BD80B582B000AF78607868FFF7B0FF7B
:1009CC00034618460837BD4680BD000080B48BB086
:1009DC0000AF7860396000237B6200233B6269E1E1
:1009EC0001227B6A02FA03F3FB613B681B68FA691C
:1009FC001340BB61BA69FB699A4240F058813B686D
:100A0C005B689A4A93425ED0984A934275D8984A4A
:100A1C00934258D0964A93426FD8964A934252D0FA
:100A2C00944A934269D8944A93424CD0924A934246
:100A3C0063D8924A934246D0904A93425DD8122B87
:100A4C002AD8122B59D801A252F823F0D30A000845
:100A5C00AD0A0008BF0A0008010B0008070B0008CC
:100A6C00070B0008070B0008070B0008070B000812
:100A7C00070B0008070B0008070B0008070B000802
:100A8C00070B0008070B0008070B0008070B0008F2
:100A9C00B50A0008C90A0008794A934213D02CE021
:100AAC003B68DB683B6229E03B68DB6804333B62F4
:100ABC0024E03B68DB6808333B621FE03B68DB6883
:100ACC000C333B621AE03B689B68002B02D1042379
:100ADC003B6213E03B689B68012B05D108233B620A
:100AEC007B68FA691A6109E008233B627B68FA6942
:100AFC005A6103E000233B6200E000BFBB69FF2B9F
:100B0C0001D87B6801E07B6804337B61BB69FF2BF8
:100B1C0002D87B6A9B0002E07B6A083B9B003B612E
:100B2C007B691A680F213B6901FA03F3DB431A4016
:100B3C00396A3B6901FA03F31A437B691A603B6813
:100B4C005B6803F08053002B00F0B1804D4B9B6928
:100B5C004C4A43F0010393614A4B9B6903F0010338
:100B6C00BB60BB68484A7B6A9B08023352F823304F
:100B7C00FB607B6A03F003039B000F2202FA03F372
:100B8C00DB43FA681340FB607B68404A934213D006
:100B9C007B683F4A93420DD07B683E4A934207D014
:100BAC007B683D4A934201D1032306E0042304E011
:100BBC00022302E0012300E000237A6A02F0030220
:100BCC0092009340FA681343FB602F497B6A9B08A1
:100BDC000233FA6841F823203B685B6803F48033E6
:100BEC00002B06D02D4B1A682C49BB6913430B60A4
:100BFC0006E02A4B1A68BB69DB43284913400B609B
:100C0C003B685B6803F40033002B06D0234B5A6817
:100C1C002249BB6913434B6006E0204B5A68BB6901
:100C2C00DB431E4913404B603B685B6803F4801345
:100C3C00002B06D0194B9A681849BB6913438B607B
:100C4C0006E0164B9A68BB69DB43144913408B6072
:100C5C003B685B6803F40013002B21D00F4BDA6860
:100C6C000E49BB691343CB6021E000BF000032107A
:100C7C0000003110000022100000211000001210A2
:100C8C00000011100010024000000140000801405B
:100C9C00000C014000100140001401400004014010
:100CAC000B4BDA68BB69DB4309491340CB607B6AA9
:100CBC0001337B623B681A687B6A22FA03F3002BD0
:100CCC007FF48EAE00BF00BF2C37BD4680BC704792
:100CDC000004014080B483B000AF78600B467B8089
:100CEC0013467B707B78002B03D07A887B681A6163
:100CFC0003E07B881A047B681A6100BF0C37BD4681
:100D0C0080BC704780B485B000AF78600B467B80A8
:100D1C007B68DB68FB607A88FB6813401A04FB680D
:100D2C00D9437B880B401A437B681A6100BF143788
:100D3C00BD4680BC7047000080B586B000AF7860BF
:100D4C007B68002B01D1012372E27B681B6803F0E6
:100D5C000103002B00F08780924B5B6803F00C03BF
:100D6C00042B0CD08F4B5B6803F00C03082B12D1B7
:100D7C008C4B5B6803F48033B3F5803F0BD1894B0C
:100D8C001B6803F40033002B6CD07B685B68002B72
:100D9C0068D101234CE27B685B68B3F5803F06D1D8
:100DAC00804B1B687F4A43F4803313602EE07B68D2
:100DBC005B68002B0CD17B4B1B687A4A23F4803385
:100DCC001360784B1B68774A23F4802313601DE073
:100DDC007B685B68B3F5A02F0CD1724B1B68714A12
:100DEC0043F4802313606F4B1B686E4A43F48033CB
:100DFC0013600BE06B4B1B686A4A23F4803313605F
:100E0C00684B1B68674A23F4802313607B685B681C
:100E1C00002B13D0FFF7ECFC386108E0FFF7E8FC7F
:100E2C0002463B69D31A642B01D9032300E25D4BC4
:100E3C001B6803F40033002BF0D014E0FFF7D8FC50
:100E4C00386108E0FFF7D4FC02463B69D31A642BE7
:100E5C0001D90323ECE1534B1B6803F40033002B43
:100E6C00F0D100E000BF7B681B6803F00203002B8D
:100E7C0063D04C4B5B6803F00C03002B0BD0494B3D
:100E8C005B6803F00C03082B1CD1464B5B6803F426
:100E9C008033002B16D1434B1B6803F00203002B4D
:100EAC0005D07B681B69012B01D00123C0E13D4BB0
:100EBC001B6823F0F8027B685B69DB00394913433C
:100ECC000B603AE07B681B69002B20D0364B01226B
:100EDC001A60FFF78DFC386108E0FFF789FC0246C9
:100EEC003B69D31A022B01D90323A1E12D4B1B68BB
:100EFC0003F00203002BF0D02A4B1B6823F0F802FE
:100F0C007B685B69DB00274913430B6015E0264BBC
:100F1C0000221A60FFF76CFC386108E0FFF768FCF0
:100F2C0002463B69D31A022B01D9032380E11D4BE6
:100F3C001B6803F00203002BF0D17B681B6803F0E5
:100F4C000803002B3AD07B689B69002B19D0174BF8
:100F5C0001221A60FFF74CFC386108E0FFF748FCEF
:100F6C0002463B69D31A022B01D9032360E10D4BD6
:100F7C005B6A03F00203002BF0D0012000F0D8FADA
:100F8C001CE00A4B00221A60FFF732FC38610FE0BC
:100F9C00FFF72EFC02463B69D31A022B08D9032318
:100FAC0046E100BF00100240000042428004424271
:100FBC00924B5B6A03F00203002BE9D17B681B6840
:100FCC0003F00403002B00F0A6800023FB758B4B71
:100FDC00DB6903F08053002B0DD1884BDB69874A0A
:100FEC0043F08053D361854BDB6903F08053BB60C6
:100FFC00BB680123FB75824B1B6803F48073002BC9
:10100C0018D17F4B1B687E4A43F480731360FFF743
:10101C00EFFB386108E0FFF7EBFB02463B69D31AA4
:10102C00642B01D9032303E1754B1B6803F4807314
:10103C00002BF0D07B68DB68012B06D16F4B1B6A51
:10104C006E4A43F0010313622DE07B68DB68002BD2
:10105C000CD16A4B1B6A694A23F001031362674B7C
:10106C001B6A664A23F0040313621CE07B68DB688E
:10107C00052B0CD1614B1B6A604A43F004031362CD
:10108C005E4B1B6A5D4A43F0010313620BE05B4B42
:10109C001B6A5A4A23F001031362584B1B6A574AC6
:1010AC0023F0040313627B68DB68002B15D0FFF779
:1010BC009FFB38610AE0FFF79BFB02463B69D31AA2
:1010CC0041F28832934201D90323B1E04B4B1B6AA6
:1010DC0003F00203002BEED014E0FFF789FB38611C
:1010EC000AE0FFF785FB02463B69D31A41F28832CE
:1010FC00934201D903239BE0404B1B6A03F002038C
:10110C00002BEED1FB7D012B05D13C4BDB693B4A1F
:10111C0023F08053D3617B68DB69002B00F0878060
:10112C00364B5B6803F00C03082B61D07B68DB69E2
:10113C00022B46D1334B00221A60FFF759FB386162
:10114C0008E0FFF755FB02463B69D31A022B01D985
:10115C0003236DE0294B1B6803F00073002BF0D1C7
:10116C007B681B6AB3F5803F08D1244B5B6823F482
:10117C0000327B689B68214913434B601F4B5B68B3
:10118C0023F474127B68196A7B685B6A0B431B49F6
:10119C0013434B601B4B01221A60FFF729FB38618C
:1011AC0008E0FFF725FB02463B69D31A022B01D955
:1011BC0003233DE0114B1B6803F00073002BF0D0B0
:1011CC0035E0104B00221A60FFF712FB386108E083
:1011DC00FFF70EFB02463B69D31A022B01D90323FE
:1011EC0026E0064B1B6803F00073002BF0D11EE0C9
:1011FC007B68DB69012B07D1012319E00010024049
:10120C0000700040600042420B4B5B68FB60FB6867
:10121C0003F480327B681B6A9A4206D1FB6803F4A4
:10122C0070127B685B6A9A4201D0012300E00023B4
:10123C0018461837BD4680BD0010024080B584B0FA
:10124C0000AF786039607B68002B01D10123D0E0BE
:10125C006A4B1B6803F007033A689A4210D9674B34
:10126C001B6823F0070265493B6813430B60634B13
:10127C001B6803F007033A689A4201D00123B8E0D7
:10128C007B681B6803F00203002B20D07B681B6873
:10129C0003F00403002B05D0594B5B68584A43F408
:1012AC00E06353607B681B6803F00803002B05D0D8
:1012BC00534B5B68524A43F460535360504B5B682A
:1012CC0023F0F0027B689B684D4913434B607B68AD
:1012DC001B6803F00103002B40D07B685B68012B7B
:1012EC0007D1474B1B6803F40033002B15D10123A6
:1012FC007FE07B685B68022B07D1414B1B6803F0D6
:10130C000073002B09D1012373E03D4B1B6803F0E4
:10131C000203002B01D101236BE0394B5B6823F0F6
:10132C0003027B685B68364913434B60FFF760FA36
:10133C00F8600AE0FFF75CFA0246FB68D31A41F248
:10134C008832934201D9032353E02D4B5B6803F0A1
:10135C000C027B685B689B009A42EBD1274B1B68A5
:10136C0003F007033A689A4210D2244B1B6823F00F
:10137C00070222493B6813430B60204B1B6803F0A8
:10138C0007033A689A4201D0012332E07B681B685C
:10139C0003F00403002B08D0194B5B6823F4E062C4
:1013AC007B68DB68164913434B607B681B6803F052
:1013BC000803002B09D0124B5B6823F460527B6846
:1013CC001B69DB000E4913434B6000F021F8024609
:1013DC000B4B5B681B0903F00F030A49CB5C22FA29
:1013EC0003F3094A1360094B1B681846FFF7BEF953
:1013FC00002318461037BD4680BD00BF00200240B8
:10140C0000100240342900080000002004000020D5
:10141C0090B48AB000AF294B3C1D0FCB84E80F0071
:10142C0040F201233B800023FB610023BB610023BE
:10143C007B6200237B6100233B62214B5B68FB6179
:10144C00FB6903F00C03042B02D0082B03D02BE018
:10145C001C4B3B622BE0FB699B0C03F00F03283306
:10146C003B4413F8243C7B61FB6903F48033002B71
:10147C0012D0134B5B685B0C03F0010328333B4425
:10148C0013F8283CBB617B690E4A03FB02F2BB6973
:10149C00B2FBF3F37B6204E07B690B4A02FB03F3C0
:1014AC007B627B6A3B6202E0064B3B6200BF3B6A9D
:1014BC0018462837BD4690BC704700BF2429000849
:1014CC000010024000127A0000093D0080B400AF09
:1014DC00024B1B681846BD4680BC704700000020BC
:1014EC0080B500AFFFF7F2FF0246054B5B681B0AA5
:1014FC0003F007030349CB5C22FA03F3184680BDC3
:10150C00001002404429000880B500AFFFF7DEFF51
:10151C000246054B5B68DB0A03F007030349CB5C0F
:10152C0022FA03F3184680BD00100240442900083B
:10153C0080B485B000AF78600A4B1B680A4AA2FBE6
:10154C0003235B0A7A6802FB03F3FB6000BFFB68B2
:10155C005A1EFA60002BF9D100BF00BF1437BD46EC
:10156C0080BC704700000020D34D621080B582B063
:10157C0000AF78607B68002B01D1012341E07B68D0
:10158C0093F83D30DBB2002B06D17B68002283F848
:10159C003C207868FEF768FF7B68022283F83D20C8
:1015AC007B681A687B6804331946104600F03CF9D6
:1015BC007B68012283F846207B68012283F83E2059
:1015CC007B68012283F83F207B68012283F840204E
:1015DC007B68012283F841207B68012283F842203A
:1015EC007B68012283F843207B68012283F8442026
:1015FC007B68012283F845207B68012283F83D201B
:10160C00002318460837BD4680BD000080B485B065
:10161C0000AF78607B6893F83D30DBB2012B01D0D2
:10162C00012332E07B68022283F83D207B681B6833
:10163C00184A93420ED07B681B68B3F1804F09D0D7
:10164C007B681B68144A934204D07B681B68134A5E
:10165C00934211D17B681B689B6803F00703FB6006
:10166C00FB68062B10D07B681B681A687B681B68AC
:10167C0042F001021A6007E07B681B681A687B68FD
:10168C001B6842F001021A60002318461437BD464D
:10169C0080BC7047002C0140000400400008004052
:1016AC0080B584B000AF786039607B6893F83C30CB
:1016BC00012B01D10223B3E07B68012283F83C208B
:1016CC007B68022283F83D207B681B689B68FB606B
:1016DC00FB6823F07703FB60FB6823F47F43FB601C
:1016EC007B681B68FA689A603B681B68B3F5005FFF
:1016FC003ED0B3F5005F00F28780B3F5805F00F059
:10170C008580B3F5805F7FD8702B1AD0702B7BD877
:10171C00602B50D0602B77D8502B3CD0502B73D8EB
:10172C00402B58D0402B6FD8302B64D0302B6BD83B
:10173C00202B60D0202B67D8002B5CD0102B5AD0DC
:10174C0062E07B6818683B6899683B685A683B683C
:10175C00DB6800F042F97B681B689B68FB60FB68E8
:10176C0043F07703FB607B681B68FA689A604EE075
:10177C007B6818683B6899683B685A683B68DB680B
:10178C0000F02BF97B681B689A687B681B6842F435
:10179C0080429A603BE07B6818683B6859683B68FC
:1017AC00DB681A4600F0A2F87B681B6850211846CB
:1017BC0000F0F9F82BE07B6818683B6859683B68C7
:1017CC00DB681A4600F0C0F87B681B68602118467D
:1017DC0000F0E9F81BE07B6818683B6859683B68C7
:1017EC00DB681A4600F082F87B681B6840211846BB
:1017FC0000F0D9F80BE07B681A683B681B68194647
:10180C00104600F0D0F802E000BF00E000BF7B689B
:10181C00012283F83D207B68002283F83C200023C2
:10182C0018461037BD4680BD80B485B000AF7860D7
:10183C0039607B681B68FB607B68294A93420BD03C
:10184C007B68B3F1804F07D07B68264A934203D064
:10185C007B68254A934208D1FB6823F07003FB6038
:10186C003B685B68FA681343FB607B681C4A9342D5
:10187C000BD07B68B3F1804F07D07B68194A934239
:10188C0003D07B68184A934208D1FB6823F4407359
:10189C00FB603B68DB68FA681343FB60FB6823F072
:1018AC0080023B685B691343FB607B68FA681A60D3
:1018BC003B689A687B68DA623B681A687B689A6254
:1018CC007B68074A934203D13B681A697B681A63A9
:1018DC007B6801225A6100BF1437BD4680BC70473B
:1018EC00002C0140000400400008004080B487B088
:1018FC0000AFF860B9607A60FB681B6A7B61FB68BB
:10190C001B6A23F00102FB681A62FB689B693B614E
:10191C003B6923F0F0033B617B681B013A6913437D
:10192C003B617B6923F00A037B617A69BB681343D3
:10193C007B61FB683A699A61FB687A691A6200BF3D
:10194C001C37BD4680BC704780B487B000AFF860D0
:10195C00B9607A60FB681B6A23F01002FB681A629C
:10196C00FB689B697B61FB681B6A3B617B6923F4A9
:10197C0070437B617B681B037A6913437B613B6912
:10198C0023F0A0033B61BB681B013A6913433B6125
:10199C00FB687A699A61FB683A691A6200BF1C3766
:1019AC00BD4680BC704780B485B000AF78603960AC
:1019BC007B689B68FB60FB6823F07003FB603A68F4
:1019CC00FB68134343F00703FB607B68FA689A607B
:1019DC0000BF1437BD4680BC704780B487B000AFE1
:1019EC00F860B9607A603B60FB689B687B617B69DF
:1019FC0023F47F437B613B681A027B681A43BB6804
:101A0C0013437A6913437B61FB687A699A6000BF60
:101A1C001C37BD4680BC704780B485B000AF786081
:101A2C0039607B6893F83C30012B01D1022346E0EE
:101A3C007B68012283F83C207B68022283F83D20DE
:101A4C007B681B685B68FB607B681B689B68BB6082
:101A5C00FB6823F07003FB603B681B68FA68134358
:101A6C00FB607B681B68FA685A607B681B68164AC7
:101A7C0093420ED07B681B68B3F1804F09D07B6812
:101A8C001B68124A934204D07B681B68104A93422D
:101A9C000CD1BB6823F08003BB603B685B68BA6801
:101AAC001343BB607B681B68BA689A607B68012231
:101ABC0083F83D207B68002283F83C2000231846E5
:101ACC001437BD4680BC7047002C01400004004018
:101ADC000008004080B582B000AF78607B68002BB6
:101AEC0001D101233FE07B6893F83D30DBB2002B42
:101AFC0006D17B68002283F83C207868FEF7D2FC84
:101B0C007B68242283F83D207B681B68DA687B683D
:101B1C001B6822F40052DA60786800F005F97B68E3
:101B2C001B681A697B681B6822F490421A617B68F7
:101B3C001B685A697B681B6822F02A025A617B6811
:101B4C001B68DA687B681B6842F40052DA607B68B9
:101B5C0000221A647B68202283F83D207B682022B7
:101B6C0083F83E20002318460837BD4680BD80B55B
:101B7C008AB002AFF860B9603B601346FB8000236B
:101B8C007B61FB6893F83D30DBB2202B7CD1BB68CA
:101B9C00002B02D0FB88002B01D1012375E0FB68E0
:101BAC0093F83C30012B01D102236EE0FB6801223B
:101BBC0083F83C20FB6800221A64FB68212283F81E
:101BCC003D20FEF715FE7861FB68FA889A84FB6865
:101BDC00FA88DA84FB689B68B3F5805F08D1FB68F0
:101BEC001B69002B04D10023FB61BB68BB6103E0C4
:101BFC00BB68FB610023BB61FB68002283F83C20BF
:101C0C002AE03B6800937B6900228021F86800F091
:101C1C0040F80346002B01D0032336E0FB69002B70
:101C2C000BD1BB691B881A46FB681B68C2F3080200
:101C3C005A60BB690233BB6107E0FB691A78FB6829
:101C4C001B685A60FB690133FB61FB68DB8C9BB240
:101C5C00013B9AB2FB68DA84FB68DB8C9BB2002BED
:101C6C00CFD13B6800937B6900224021F86800F0DB
:101C7C0010F80346002B01D0032306E0FB6820225A
:101C8C0083F83D20002300E0022318462037BD4690
:101C9C0080BD80B584B000AFF860B9603B6013467E
:101CAC00FB712CE0BB69B3F1FF3F28D0BB69002B63
:101CBC0007D0FEF79DFD02463B68D31ABA699A42DB
:101CCC001DD2FB681B68DA68FB681B6822F4D072B3
:101CDC00DA60FB681B685A69FB681B6822F001021A
:101CEC005A61FB68202283F83D20FB68202283F890
:101CFC003E20FB68002283F83C2003230FE0FB68A6
:101D0C001B681A68BB681340BA689A420CBF01235F
:101D1C000023DBB21A46FB799A42C3D00023184643
:101D2C001037BD4680BD000080B584B000AF786030
:101D3C007B681B681B6923F440517B68DA687B68FD
:101D4C001B680A431A617B689A687B681B691A4393
:101D5C007B685B691343BB607B681B68DB6823F49F
:101D6C00B05323F00C037A681268B9680B43D36044
:101D7C007B681B685B6923F440717B689A697B689C
:101D8C001B680A435A617B681B682C4A934203D137
:101D9C00FFF7BAFBF86002E0FFF7A2FBF860FA6805
:101DAC0013469B0013449A001A447B685B689B00A3
:101DBC00B2FBF3F3224AA2FB03235B091901FA6875
:101DCC0013469B0013449A001A447B685B689B0083
:101DDC00B2FBF3F21A4BA3FB02035B09642000FB7A
:101DEC0003F3D31A1B013233154AA2FB03235B09FD
:101DFC0003F0F0031944FA6813469B0013449A004D
:101E0C001A447B685B689B00B2FBF3F20C4BA3FBA0
:101E1C0002035B09642000FB03F3D31A1B0132336A
:101E2C00074AA2FB03235B0903F00F027B681B68C4
:101E3C000A449A6000BF1037BD4680BD003801408F
:101E4C001F85EB51014B1868704700BF0C00002038
:101E5C0070B500260C4D0D4C641BA410A64209D184
:101E6C0000F018FD00260A4D0A4C641BA410A64273
:101E7C0005D170BD55F8043B98470136EEE755F88F
:101E8C00043B98470136F2E7B0290008B029000856
:101E9C00B0290008B429000803460244934200D13B
:101EAC00704703F8011BF9E770B50E46054618B1EB
:101EBC0083690BB900F044FAAB69AC6813B92846D6
:101ECC0000F03EFA2C4B9C4220D16C68636EDB0711
:101EDC0005D4A389980502D4A06D00F0CFFAA3898C
:101EEC0019071DD52369DBB1013EA36816F8011F44
:101EFC00013BA36039BB002B38DA22460A21284665
:101F0C0000F048F8013011D00A2511E01B4B9C421F
:101F1C0001D1AC68DAE71A4B9C4208BFEC68D5E7F4
:101F2C002146284600F088F80028DDD04FF0FF3518
:101F3C00636EDA0705D4A3899B0502D4A06D00F06B
:101F4C009EFA284670BD002B04DAA2699A4206DC80
:101F5C000A2904D023685A1C22601970C5E722464E
:101F6C00284600F017F80130BFD1DFE70A252368B7
:101F7C005A1C22601D70DBE77029000890290008AC
:101F8C0050290008024B01461868FFF78DBF00BFAF
:101F9C000C000020F8B50E461446054618B18369AE
:101FAC000BB900F0CDF9214B9C422BD16C68A36985
:101FBC00A360A3891A072FD523696BB32369206803
:101FCC00F6B2C01A63693746834204DC21462846C0
:101FDC0000F022F930BBA3680130013BA3602368F9
:101FEC005A1C22601E706369834204D0A389DB07EC
:101FFC0006D50A2E04D12146284600F00DF988B9E1
:10200C003846F8BD0A4B9C4201D1AC68CFE7094B6E
:10201C009C4208BFEC68CAE72146284600F00CF841
:10202C000028CBD04FF0FF37EAE700BF702900083B
:10203C009029000850290008324B70B51D680646DF
:10204C000C4625B1AB6913B9284600F079F92E4B33
:10205C009C420FD16C68A389B4F90C2019072CD4BD
:10206C00DD0611D40923336042F040034FF0FF30FA
:10207C00A3813EE0254B9C4201D1AC68EBE7244B9D
:10208C009C4208BFEC68E6E7580712D5616B41B17A
:10209C0004F14403994202D0304600F057FA002371
:1020AC006363A38923F02403A38100236360236962
:1020BC002360A38943F00803A38123694BB9A38947
:1020CC0003F42073B3F5007F03D02146304600F0B3
:1020DC00FDF9A089B4F90C2010F001030AD00023FB
:1020EC00A36063695B42A361236943B910F080006C
:1020FC00BAD170BD810758BF6369A360F4E70020B3
:10210C00F7E700BF0C000020702900089029000898
:10211C00502900088A89F8B5054610070C4657D493
:10212C004B68002B04DC0B6C002B01DC0020F8BD91
:10213C00E66A002EFAD0002312F480522F682B602E
:10214C0032D0606DA3895A0705D56368C01A636BDA
:10215C000BB1236CC01A00230246E66A2846216A9A
:10216C00B047431CA38906D129681D292CD8294ABC
:10217C00CA40D60728D5002262602269D9042260A1
:10218C0004D5421C01D12B6803B96065616B2F60CB
:10219C000029CBD004F14403994202D0284600F028
:1021AC00D5F900206063C2E7216A01232846B047B5
:1021BC00411CC7D12B68002BC4D01D2B01D0162B72
:1021CC0001D12F60B2E7A38943F04003A381AEE7AE
:1021DC000F69002FAAD0930718BF00230E6808BF01
:1021EC004B69F61B0F608B60002E9FDD33463A4621
:1021FC002846216AD4F828C0E047002806DCA389C9
:10220C004FF0FF3043F04003A38190E70744361AA8
:10221C00EAE700BF0100402038B50B6905460C46C3
:10222C0013B90025284638BD18B183690BB900F0E5
:10223C0087F8144B9C421BD16C68B4F90C30002B02
:10224C00EFD0626ED00704D4990502D4A06D00F0D3
:10225C0015F928462146FFF75DFF636E0546DA0740
:10226C00E0D4A3899B05DDD4A06D00F008F9D9E773
:10227C00054B9C4201D1AC68DFE7044B9C4208BF84
:10228C00EC68DAE77029000890290008502900084A
:10229C00002310B50446C0E90033C0E90433836061
:1022AC0081814366C2818361194608225C30FFF745
:1022BC00F3FD054B24626362044BA362044BE3629F
:1022CC00044B236310BD00BF3127000853270008BF
:1022DC008B270008AF270008014900F0AFB800BFFA
:1022EC0025220008682270B54D1E55430E4605F197
:1022FC00740100F093F9044640B10021C0E90016C6
:10230C000C30A06005F16802FFF7C6FD204670BDD9
:10231C00014800F0B3B800BF21010020014800F0D3
:10232C00AEB800BF21010020014800F0A7B800BFE3
:10233C0022010020014800F0A2B800BF22010020B9
:10234C0010B50446FFF7F0FFA3691BB1BDE81040C0
:10235C00FFF7F0BFC4E912332365134B134A1B6814
:10236C00A262A34208BF0123204608BFA36100F06C
:10237C001FF86060204600F01BF8A060204600F0BB
:10238C0017F800220421E0606068FFF781FF01224A
:10239C000921A068FFF77CFF02221221E068FFF7F9
:1023AC0077FF0123A361D1E74C290008E52200083F
:1023BC00F8B50746FFF7ACFF1E4B1E68B36913B99F
:1023CC003046FFF7BDFF4836D6E90134013B03D553
:1023DC0033680BB33668F7E7B4F90C50D5B9164B24
:1023EC0004F15800E360656600F047F8FFF796FFCC
:1023FC0008222946C4E90155C4E904552560A561A4
:10240C0004F15C00FFF748FDC4E90D55C4E9125511
:10241C002046F8BD6834D9E704213846FFF762FF3F
:10242C00044630600028D5D1FFF778FF0C233B60C1
:10243C00EEE700BF4C2900080100FFFF2DE9F8432F
:10244C0006468846002700F14804D4E90195B9F105
:10245C00010905D52468002CF7D13846BDE8F8836E
:10246C00AB89012B07D9B5F90E30013303D02946BE
:10247C003046C04707436835E9E7704770477047F7
:10248C0070B50E46B1F90E10144600291D4696B0D3
:10249C0008DA0022B6F90C302A601A0610D44FF470
:1024AC0080630EE06A4600F0A3F90028F1DB019A84
:1024BC0002F47042A2F500535A425A412A60EEE7E8
:1024CC0040230020236016B070BD00008B8973B5CB
:1024DC009D0706460C4607D504F14703236023618C
:1024EC000123636102B070BD6A4601ABFFF7C8FF00
:1024FC0000990546304600F091F848B9B4F90C3013
:10250C009A05EFD423F0030343F00203A381E3E71E
:10251C000D4BB362A389206043F08003A381009B21
:10252C0020616361019B5BB13046B4F90E1000F081
:10253C0071F928B1A38923F0030343F00103A381AC
:10254C00A0890543A581CDE7E522000838B50546ED
:10255C00002940D051F8043C0C1F002BB8BFE418E4
:10256C0000F07AF91C4A136833B96360146028468A
:10257C00BDE8384000F076B9A34208D9206821188C
:10258C008B4201BF19685B6809182160EDE71A4698
:10259C005B680BB1A342FAD911685018A0420BD159
:1025AC0020680144501883421160E0D118685B68C0
:1025BC00014411605360DAE702D90C232B60D6E793
:1025CC00206821188B4201BF19685B6809182160CB
:1025DC0063605460CBE738BD2401002070B50E4E0B
:1025EC000C463168054611B900F08CF83060214674
:1025FC00284600F087F8431C0AD0C41C24F00304BE
:10260C00A04207D0211A284600F07CF8013001D1F5
:10261C004FF0FF34204670BD280100202DE9F04119
:10262C00CD1C25F0030508350C2D38BF0C25002DCD
:10263C00074601DBA94205D90C2300263B60304636
:10264C00BDE8F0812E4E00F007F933681C4634BB10
:10265C0029463846FFF7C2FF431C04464DD1346867
:10266C002646002E40D123683146384604EB030839
:10267C0000F048F880453AD1216803356D1A25F0F1
:10268C00030508350C2D38BF0C2538462946FFF7B5
:10269C00A5FF01302BD023682B4423600EE0226869
:1026AC00521B1ED40B2A16D96119A342256018BFE0
:1026BC005960636808BF316062514B60384604F161
:1026CC000B0600F0CFF826F00706231DF21AB6D041
:1026DC009B1BA350B3E76268A3420CBF32605A60E5
:1026EC00ECE723466468B2E734467668B9E70C2316
:1026FC0038463B6000F0B6F8A1E72560DEE700BF86
:10270C002401002038B50023054D044608462B60F3
:10271C00FDF7B4FF431C02D12B6803B1236038BD15
:10272C002C01002010B50C46B1F90E1000F0A0F8E9
:10273C000028ABBF636DA3891B1823F48053ACBF77
:10274C006365A38110BD2DE9F0411F468B890546B9
:10275C00DB050C46164605D502230022B1F90E10F6
:10276C0000F068F8A389324623F48053A3812846ED
:10277C003B46B4F90E10BDE8F04100F017B810B5A7
:10278C000C46B1F90E1000F055F8431CA38915BF87
:10279C00606523F4805343F48053A38118BFA38155
:1027AC0010BDB1F90E1000F013B8000038B5044696
:1027BC00084611460022054D2A601A46FDF711FF06
:1027CC00431C02D12B6803B1236038BD2C010020BF
:1027DC0038B50023054D044608462B60FDF71DFF58
:1027EC00431C02D12B6803B1236038BD2C0100209F
:1027FC0038B50023064D0446084611462B60FDF7FC
:10280C0017FF431C02D12B6803B1236038BD00BFF6
:10281C002C01002038B50023054D044608462B60DA
:10282C00FDF715FF431C02D12B6803B1236038BDA3
:10283C002C01002038B50446084611460022054DEF
:10284C002A601A46FDF70DFF431C02D12B6803B119
:10285C00236038BD2C0100200148FFF70FBE00BFDC
:10286C00200100200148FFF70ABE00BF2001002014
:10287C0038B50446084611460022054D2A601A4612
:10288C00FDF792FE431C02D12B6803B1236038BDC7
:10289C002C010020F8B500BFF8BC08BC9E46704760
:0C28AC00F8B500BFF8BC08BC9E467047A1
:1028B80046726F6D2054454D502053656E736F728C
:1028C80020546573740D000046726F6D207468653E
:1028D800206572726F722068616E646C65720000A8
:1028E80046726F6D204E4D492048616E646C65726A
:1028F8000000000048617264206661756C7420688D
:10290800616E646C657200004D656D4D616E676542
:102918002048616E646C65720000000002030405C3
:10292800060708090A0B0C0D0E0F10100000000016
:102938000000000001020304060708090000000067
:102948000102030410000020000000000000000045
:10295800000000000000000000000000000000006F
:10296800000000000000000000000000000000005F
:10297800000000000000000000000000000000004F
:10298800000000000000000000000000000000003F
:10299800000000000000000000000000000000002F
:0829A800000000000000000027
:0429B00031010008E9
:0429B4000D01000809
:1029B8000024F400100000000100000010000020B6
:1029C800000000007029000890290008502900081C
:1029D80000000000000000000000000000000000EF
:1029E80000000000000000000000000000000000DF
:1029F80000000000000000000000000000000000CF
:102A080000000000000000000000000000000000BE
:102A180000000000000000000000000000000000AE
:0400000508000701E7
:00000001FF
